{
	"BallotV2.sol": {
		"BallotV2": {
			"abi": [
				{
					"inputs": [
						{
							"internalType": "uint256",
							"name": "numProposal",
							"type": "uint256"
						}
					],
					"stateMutability": "nonpayable",
					"type": "constructor"
				},
				{
					"inputs": [
						{
							"internalType": "enum BallotV2.Phase",
							"name": "x",
							"type": "uint8"
						}
					],
					"name": "changeState",
					"outputs": [],
					"stateMutability": "nonpayable",
					"type": "function"
				},
				{
					"inputs": [
						{
							"internalType": "address",
							"name": "voter",
							"type": "address"
						}
					],
					"name": "register",
					"outputs": [],
					"stateMutability": "nonpayable",
					"type": "function"
				},
				{
					"inputs": [],
					"name": "state",
					"outputs": [
						{
							"internalType": "enum BallotV2.Phase",
							"name": "",
							"type": "uint8"
						}
					],
					"stateMutability": "view",
					"type": "function"
				}
			],
			"devdoc": {
				"kind": "dev",
				"methods": {},
				"version": 1
			},
			"evm": {
				"assembly": "    /* \"BallotV2.sol\":23:1029  contract BallotV2 {... */\n  mstore(0x40, 0x80)\n    /* \"BallotV2.sol\":307:317  Phase.Init */\n  0x00\n    /* \"BallotV2.sol\":286:317  Phase public state = Phase.Init */\n  0x03\n  exp(0x0100, 0x00)\n  dup2\n  sload\n  dup2\n  0xff\n  mul\n  not\n  and\n  swap1\n  dup4\n  0x03\n  dup2\n  gt\n  iszero\n  tag_1\n  jumpi\n  mstore(0x00, 0x4e487b7100000000000000000000000000000000000000000000000000000000)\n  mstore(0x04, 0x21)\n  revert(0x00, 0x24)\ntag_1:\n  mul\n  or\n  swap1\n  sstore\n  pop\n    /* \"BallotV2.sol\":397:598  constructor (uint numProposal) public {... */\n  callvalue\n  dup1\n  iszero\n  tag_2\n  jumpi\n  0x00\n  dup1\n  revert\ntag_2:\n  pop\n  mload(0x40)\n  sub(codesize, bytecodeSize)\n  dup1\n  bytecodeSize\n  dup4\n  codecopy\n  dup2\n  dup2\n  add\n  0x40\n  mstore\n  dup2\n  add\n  swap1\n  tag_3\n  swap2\n  swap1\n  tag_4\n  jump\t// in\ntag_3:\n    /* \"BallotV2.sol\":455:465  msg.sender */\n  caller\n    /* \"BallotV2.sol\":441:452  chariperson */\n  0x00\n  dup1\n    /* \"BallotV2.sol\":441:465  chariperson = msg.sender */\n  0x0100\n  exp\n  dup2\n  sload\n  dup2\n  0xffffffffffffffffffffffffffffffffffffffff\n  mul\n  not\n  and\n  swap1\n  dup4\n  0xffffffffffffffffffffffffffffffffffffffff\n  and\n  mul\n  or\n  swap1\n  sstore\n  pop\n    /* \"BallotV2.sol\":500:501  2 */\n  0x02\n    /* \"BallotV2.sol\":471:477  voters */\n  0x01\n    /* \"BallotV2.sol\":471:490  voters[chariperson] */\n  0x00\n    /* \"BallotV2.sol\":478:489  chariperson */\n  dup1\n  0x00\n  swap1\n  sload\n  swap1\n  0x0100\n  exp\n  swap1\n  div\n  0xffffffffffffffffffffffffffffffffffffffff\n  and\n    /* \"BallotV2.sol\":471:490  voters[chariperson] */\n  0xffffffffffffffffffffffffffffffffffffffff\n  and\n  0xffffffffffffffffffffffffffffffffffffffff\n  and\n  dup2\n  mstore\n  0x20\n  add\n  swap1\n  dup2\n  mstore\n  0x20\n  add\n  0x00\n  keccak256\n    /* \"BallotV2.sol\":471:497  voters[chariperson].weight */\n  0x00\n  add\n    /* \"BallotV2.sol\":471:501  voters[chariperson].weight = 2 */\n  dup2\n  swap1\n  sstore\n  pop\n    /* \"BallotV2.sol\":511:520  uint prop */\n  0x00\n    /* \"BallotV2.sol\":507:594  for(uint prop=0; prop < numProposal; prop++) {... */\ntag_7:\n    /* \"BallotV2.sol\":531:542  numProposal */\n  dup2\n    /* \"BallotV2.sol\":524:528  prop */\n  dup2\n    /* \"BallotV2.sol\":524:542  prop < numProposal */\n  lt\n    /* \"BallotV2.sol\":507:594  for(uint prop=0; prop < numProposal; prop++) {... */\n  iszero\n  tag_8\n  jumpi\n    /* \"BallotV2.sol\":560:569  proposals */\n  0x02\n    /* \"BallotV2.sol\":575:586  Proposal(0) */\n  mload(0x40)\n  dup1\n  0x20\n  add\n  0x40\n  mstore\n  dup1\n    /* \"BallotV2.sol\":584:585  0 */\n  0x00\n    /* \"BallotV2.sol\":575:586  Proposal(0) */\n  dup2\n  mstore\n  pop\n    /* \"BallotV2.sol\":560:587  proposals.push(Proposal(0)) */\n  swap1\n  dup1\n  0x01\n  dup2\n  sload\n  add\n  dup1\n  dup3\n  sstore\n  dup1\n  swap2\n  pop\n  pop\n  0x01\n  swap1\n  sub\n  swap1\n  0x00\n  mstore\n  keccak256(0x00, 0x20)\n  add\n  0x00\n  swap1\n  swap2\n  swap1\n  swap2\n  swap1\n  swap2\n  pop\n  0x00\n  dup3\n  add\n  mload\n  dup2\n  0x00\n  add\n  sstore\n  pop\n  pop\n    /* \"BallotV2.sol\":544:550  prop++ */\n  dup1\n  dup1\n  tag_11\n  swap1\n  tag_12\n  jump\t// in\ntag_11:\n  swap2\n  pop\n  pop\n    /* \"BallotV2.sol\":507:594  for(uint prop=0; prop < numProposal; prop++) {... */\n  jump(tag_7)\ntag_8:\n  pop\n    /* \"BallotV2.sol\":397:598  constructor (uint numProposal) public {... */\n  pop\n    /* \"BallotV2.sol\":23:1029  contract BallotV2 {... */\n  jump(tag_13)\n    /* \"#utility.yul\":7:150   */\ntag_15:\n  0x00\n    /* \"#utility.yul\":95:101   */\n  dup2\n    /* \"#utility.yul\":89:102   */\n  mload\n    /* \"#utility.yul\":80:102   */\n  swap1\n  pop\n    /* \"#utility.yul\":111:144   */\n  tag_17\n    /* \"#utility.yul\":138:143   */\n  dup2\n    /* \"#utility.yul\":111:144   */\n  tag_18\n  jump\t// in\ntag_17:\n    /* \"#utility.yul\":70:150   */\n  swap3\n  swap2\n  pop\n  pop\n  jump\t// out\n    /* \"#utility.yul\":156:440   */\ntag_4:\n  0x00\n    /* \"#utility.yul\":275:277   */\n  0x20\n    /* \"#utility.yul\":263:272   */\n  dup3\n    /* \"#utility.yul\":254:261   */\n  dup5\n    /* \"#utility.yul\":250:273   */\n  sub\n    /* \"#utility.yul\":246:278   */\n  slt\n    /* \"#utility.yul\":243:245   */\n  iszero\n  tag_20\n  jumpi\n    /* \"#utility.yul\":291:292   */\n  0x00\n    /* \"#utility.yul\":288:289   */\n  dup1\n    /* \"#utility.yul\":281:293   */\n  revert\n    /* \"#utility.yul\":243:245   */\ntag_20:\n    /* \"#utility.yul\":334:335   */\n  0x00\n    /* \"#utility.yul\":359:423   */\n  tag_21\n    /* \"#utility.yul\":415:422   */\n  dup5\n    /* \"#utility.yul\":406:412   */\n  dup3\n    /* \"#utility.yul\":395:404   */\n  dup6\n    /* \"#utility.yul\":391:413   */\n  add\n    /* \"#utility.yul\":359:423   */\n  tag_15\n  jump\t// in\ntag_21:\n    /* \"#utility.yul\":349:423   */\n  swap2\n  pop\n    /* \"#utility.yul\":305:433   */\n  pop\n    /* \"#utility.yul\":233:440   */\n  swap3\n  swap2\n  pop\n  pop\n  jump\t// out\n    /* \"#utility.yul\":446:523   */\ntag_22:\n  0x00\n    /* \"#utility.yul\":512:517   */\n  dup2\n    /* \"#utility.yul\":501:517   */\n  swap1\n  pop\n    /* \"#utility.yul\":491:523   */\n  swap2\n  swap1\n  pop\n  jump\t// out\n    /* \"#utility.yul\":529:762   */\ntag_12:\n  0x00\n    /* \"#utility.yul\":591:615   */\n  tag_25\n    /* \"#utility.yul\":609:614   */\n  dup3\n    /* \"#utility.yul\":591:615   */\n  tag_22\n  jump\t// in\ntag_25:\n    /* \"#utility.yul\":582:615   */\n  swap2\n  pop\n    /* \"#utility.yul\":637:703   */\n  0xffffffffffffffffffffffffffffffffffffffffffffffffffffffffffffffff\n    /* \"#utility.yul\":630:635   */\n  dup3\n    /* \"#utility.yul\":627:704   */\n  eq\n    /* \"#utility.yul\":624:626   */\n  iszero\n  tag_26\n  jumpi\n    /* \"#utility.yul\":707:725   */\n  tag_27\n  tag_28\n  jump\t// in\ntag_27:\n    /* \"#utility.yul\":624:626   */\ntag_26:\n    /* \"#utility.yul\":754:755   */\n  0x01\n    /* \"#utility.yul\":747:752   */\n  dup3\n    /* \"#utility.yul\":743:756   */\n  add\n    /* \"#utility.yul\":736:756   */\n  swap1\n  pop\n    /* \"#utility.yul\":572:762   */\n  swap2\n  swap1\n  pop\n  jump\t// out\n    /* \"#utility.yul\":768:948   */\ntag_28:\n    /* \"#utility.yul\":816:893   */\n  0x4e487b7100000000000000000000000000000000000000000000000000000000\n    /* \"#utility.yul\":813:814   */\n  0x00\n    /* \"#utility.yul\":806:894   */\n  mstore\n    /* \"#utility.yul\":913:917   */\n  0x11\n    /* \"#utility.yul\":910:911   */\n  0x04\n    /* \"#utility.yul\":903:918   */\n  mstore\n    /* \"#utility.yul\":937:941   */\n  0x24\n    /* \"#utility.yul\":934:935   */\n  0x00\n    /* \"#utility.yul\":927:942   */\n  revert\n    /* \"#utility.yul\":954:1076   */\ntag_18:\n    /* \"#utility.yul\":1027:1051   */\n  tag_31\n    /* \"#utility.yul\":1045:1050   */\n  dup2\n    /* \"#utility.yul\":1027:1051   */\n  tag_22\n  jump\t// in\ntag_31:\n    /* \"#utility.yul\":1020:1025   */\n  dup2\n    /* \"#utility.yul\":1017:1052   */\n  eq\n    /* \"#utility.yul\":1007:1009   */\n  tag_32\n  jumpi\n    /* \"#utility.yul\":1066:1067   */\n  0x00\n    /* \"#utility.yul\":1063:1064   */\n  dup1\n    /* \"#utility.yul\":1056:1068   */\n  revert\n    /* \"#utility.yul\":1007:1009   */\ntag_32:\n    /* \"#utility.yul\":997:1076   */\n  pop\n  jump\t// out\n    /* \"BallotV2.sol\":23:1029  contract BallotV2 {... */\ntag_13:\n  dataSize(sub_0)\n  dup1\n  dataOffset(sub_0)\n  0x00\n  codecopy\n  0x00\n  return\nstop\n\nsub_0: assembly {\n        /* \"BallotV2.sol\":23:1029  contract BallotV2 {... */\n      mstore(0x40, 0x80)\n      callvalue\n      dup1\n      iszero\n      tag_1\n      jumpi\n      0x00\n      dup1\n      revert\n    tag_1:\n      pop\n      jumpi(tag_2, lt(calldatasize, 0x04))\n      shr(0xe0, calldataload(0x00))\n      dup1\n      0x268f1153\n      eq\n      tag_3\n      jumpi\n      dup1\n      0x4420e486\n      eq\n      tag_4\n      jumpi\n      dup1\n      0xc19d93fb\n      eq\n      tag_5\n      jumpi\n    tag_2:\n      0x00\n      dup1\n      revert\n        /* \"BallotV2.sol\":664:823  function changeState(Phase x) public {... */\n    tag_3:\n      tag_6\n      0x04\n      dup1\n      calldatasize\n      sub\n      dup2\n      add\n      swap1\n      tag_7\n      swap2\n      swap1\n      tag_8\n      jump\t// in\n    tag_7:\n      tag_9\n      jump\t// in\n    tag_6:\n      stop\n        /* \"BallotV2.sol\":827:1027  function register(address voter) public validatePhase(Phase.Regs) {... */\n    tag_4:\n      tag_10\n      0x04\n      dup1\n      calldatasize\n      sub\n      dup2\n      add\n      swap1\n      tag_11\n      swap2\n      swap1\n      tag_12\n      jump\t// in\n    tag_11:\n      tag_13\n      jump\t// in\n    tag_10:\n      stop\n        /* \"BallotV2.sol\":286:317  Phase public state = Phase.Init */\n    tag_5:\n      tag_14\n      tag_15\n      jump\t// in\n    tag_14:\n      mload(0x40)\n      tag_16\n      swap2\n      swap1\n      tag_17\n      jump\t// in\n    tag_16:\n      mload(0x40)\n      dup1\n      swap2\n      sub\n      swap1\n      return\n        /* \"BallotV2.sol\":664:823  function changeState(Phase x) public {... */\n    tag_9:\n        /* \"BallotV2.sol\":724:735  chariperson */\n      0x00\n      dup1\n      sload\n      swap1\n      0x0100\n      exp\n      swap1\n      div\n      0xffffffffffffffffffffffffffffffffffffffff\n      and\n        /* \"BallotV2.sol\":710:735  msg.sender != chariperson */\n      0xffffffffffffffffffffffffffffffffffffffff\n      and\n        /* \"BallotV2.sol\":710:720  msg.sender */\n      caller\n        /* \"BallotV2.sol\":710:735  msg.sender != chariperson */\n      0xffffffffffffffffffffffffffffffffffffffff\n      and\n      eq\n        /* \"BallotV2.sol\":707:760  if(msg.sender != chariperson) {... */\n      tag_19\n      jumpi\n        /* \"BallotV2.sol\":745:753  revert() */\n      0x00\n      dup1\n      revert\n        /* \"BallotV2.sol\":707:760  if(msg.sender != chariperson) {... */\n    tag_19:\n        /* \"BallotV2.sol\":773:778  state */\n      0x03\n      0x00\n      swap1\n      sload\n      swap1\n      0x0100\n      exp\n      swap1\n      div\n      0xff\n      and\n        /* \"BallotV2.sol\":769:778  x < state */\n      0x03\n      dup2\n      gt\n      iszero\n      tag_20\n      jumpi\n      mstore(0x00, 0x4e487b7100000000000000000000000000000000000000000000000000000000)\n      mstore(0x04, 0x21)\n      revert(0x00, 0x24)\n    tag_20:\n        /* \"BallotV2.sol\":769:770  x */\n      dup2\n        /* \"BallotV2.sol\":769:778  x < state */\n      0x03\n      dup2\n      gt\n      iszero\n      tag_21\n      jumpi\n      mstore(0x00, 0x4e487b7100000000000000000000000000000000000000000000000000000000)\n      mstore(0x04, 0x21)\n      revert(0x00, 0x24)\n    tag_21:\n      lt\n        /* \"BallotV2.sol\":766:803  if(x < state) {... */\n      iszero\n      tag_22\n      jumpi\n        /* \"BallotV2.sol\":788:796  revert() */\n      0x00\n      dup1\n      revert\n        /* \"BallotV2.sol\":766:803  if(x < state) {... */\n    tag_22:\n        /* \"BallotV2.sol\":817:818  x */\n      dup1\n        /* \"BallotV2.sol\":809:814  state */\n      0x03\n      0x00\n        /* \"BallotV2.sol\":809:818  state = x */\n      0x0100\n      exp\n      dup2\n      sload\n      dup2\n      0xff\n      mul\n      not\n      and\n      swap1\n      dup4\n      0x03\n      dup2\n      gt\n      iszero\n      tag_23\n      jumpi\n      mstore(0x00, 0x4e487b7100000000000000000000000000000000000000000000000000000000)\n      mstore(0x04, 0x21)\n      revert(0x00, 0x24)\n    tag_23:\n      mul\n      or\n      swap1\n      sstore\n      pop\n        /* \"BallotV2.sol\":664:823  function changeState(Phase x) public {... */\n      pop\n      jump\t// out\n        /* \"BallotV2.sol\":827:1027  function register(address voter) public validatePhase(Phase.Regs) {... */\n    tag_13:\n        /* \"BallotV2.sol\":881:891  Phase.Regs */\n      0x01\n        /* \"BallotV2.sol\":379:380  p */\n      dup1\n        /* \"BallotV2.sol\":370:380  state == p */\n      0x03\n      dup2\n      gt\n      iszero\n      tag_25\n      jumpi\n      mstore(0x00, 0x4e487b7100000000000000000000000000000000000000000000000000000000)\n      mstore(0x04, 0x21)\n      revert(0x00, 0x24)\n    tag_25:\n        /* \"BallotV2.sol\":370:375  state */\n      0x03\n      0x00\n      swap1\n      sload\n      swap1\n      0x0100\n      exp\n      swap1\n      div\n      0xff\n      and\n        /* \"BallotV2.sol\":370:380  state == p */\n      0x03\n      dup2\n      gt\n      iszero\n      tag_26\n      jumpi\n      mstore(0x00, 0x4e487b7100000000000000000000000000000000000000000000000000000000)\n      mstore(0x04, 0x21)\n      revert(0x00, 0x24)\n    tag_26:\n      eq\n        /* \"BallotV2.sol\":362:381  require(state == p) */\n      tag_27\n      jumpi\n      0x00\n      dup1\n      revert\n    tag_27:\n        /* \"BallotV2.sol\":917:928  chariperson */\n      0x00\n      dup1\n      sload\n      swap1\n      0x0100\n      exp\n      swap1\n      div\n      0xffffffffffffffffffffffffffffffffffffffff\n      and\n        /* \"BallotV2.sol\":903:928  msg.sender != chariperson */\n      0xffffffffffffffffffffffffffffffffffffffff\n      and\n        /* \"BallotV2.sol\":903:913  msg.sender */\n      caller\n        /* \"BallotV2.sol\":903:928  msg.sender != chariperson */\n      0xffffffffffffffffffffffffffffffffffffffff\n      and\n      eq\n      iszero\n        /* \"BallotV2.sol\":903:951  msg.sender != chariperson || voters[voter].voted */\n      dup1\n      tag_29\n      jumpi\n      pop\n        /* \"BallotV2.sol\":932:938  voters */\n      0x01\n        /* \"BallotV2.sol\":932:945  voters[voter] */\n      0x00\n        /* \"BallotV2.sol\":939:944  voter */\n      dup4\n        /* \"BallotV2.sol\":932:945  voters[voter] */\n      0xffffffffffffffffffffffffffffffffffffffff\n      and\n      0xffffffffffffffffffffffffffffffffffffffff\n      and\n      dup2\n      mstore\n      0x20\n      add\n      swap1\n      dup2\n      mstore\n      0x20\n      add\n      0x00\n      keccak256\n        /* \"BallotV2.sol\":932:951  voters[voter].voted */\n      0x01\n      add\n      0x00\n      swap1\n      sload\n      swap1\n      0x0100\n      exp\n      swap1\n      div\n      0xff\n      and\n        /* \"BallotV2.sol\":903:951  msg.sender != chariperson || voters[voter].voted */\n    tag_29:\n        /* \"BallotV2.sol\":899:960  if (msg.sender != chariperson || voters[voter].voted) return; */\n      iszero\n      tag_30\n      jumpi\n        /* \"BallotV2.sol\":953:960  return; */\n      jump(tag_28)\n        /* \"BallotV2.sol\":899:960  if (msg.sender != chariperson || voters[voter].voted) return; */\n    tag_30:\n        /* \"BallotV2.sol\":988:989  1 */\n      0x01\n        /* \"BallotV2.sol\":965:971  voters */\n      dup1\n        /* \"BallotV2.sol\":965:978  voters[voter] */\n      0x00\n        /* \"BallotV2.sol\":972:977  voter */\n      dup5\n        /* \"BallotV2.sol\":965:978  voters[voter] */\n      0xffffffffffffffffffffffffffffffffffffffff\n      and\n      0xffffffffffffffffffffffffffffffffffffffff\n      and\n      dup2\n      mstore\n      0x20\n      add\n      swap1\n      dup2\n      mstore\n      0x20\n      add\n      0x00\n      keccak256\n        /* \"BallotV2.sol\":965:985  voters[voter].weight */\n      0x00\n      add\n        /* \"BallotV2.sol\":965:989  voters[voter].weight = 1 */\n      dup2\n      swap1\n      sstore\n      pop\n        /* \"BallotV2.sol\":1017:1022  false */\n      0x00\n        /* \"BallotV2.sol\":995:1001  voters */\n      0x01\n        /* \"BallotV2.sol\":995:1008  voters[voter] */\n      0x00\n        /* \"BallotV2.sol\":1002:1007  voter */\n      dup5\n        /* \"BallotV2.sol\":995:1008  voters[voter] */\n      0xffffffffffffffffffffffffffffffffffffffff\n      and\n      0xffffffffffffffffffffffffffffffffffffffff\n      and\n      dup2\n      mstore\n      0x20\n      add\n      swap1\n      dup2\n      mstore\n      0x20\n      add\n      0x00\n      keccak256\n        /* \"BallotV2.sol\":995:1014  voters[voter].voted */\n      0x01\n      add\n      0x00\n        /* \"BallotV2.sol\":995:1022  voters[voter].voted = false */\n      0x0100\n      exp\n      dup2\n      sload\n      dup2\n      0xff\n      mul\n      not\n      and\n      swap1\n      dup4\n      iszero\n      iszero\n      mul\n      or\n      swap1\n      sstore\n      pop\n        /* \"BallotV2.sol\":387:388  _ */\n    tag_28:\n        /* \"BallotV2.sol\":827:1027  function register(address voter) public validatePhase(Phase.Regs) {... */\n      pop\n      pop\n      jump\t// out\n        /* \"BallotV2.sol\":286:317  Phase public state = Phase.Init */\n    tag_15:\n      0x03\n      0x00\n      swap1\n      sload\n      swap1\n      0x0100\n      exp\n      swap1\n      div\n      0xff\n      and\n      dup2\n      jump\t// out\n        /* \"#utility.yul\":7:146   */\n    tag_32:\n      0x00\n        /* \"#utility.yul\":91:97   */\n      dup2\n        /* \"#utility.yul\":78:98   */\n      calldataload\n        /* \"#utility.yul\":69:98   */\n      swap1\n      pop\n        /* \"#utility.yul\":107:140   */\n      tag_34\n        /* \"#utility.yul\":134:139   */\n      dup2\n        /* \"#utility.yul\":107:140   */\n      tag_35\n      jump\t// in\n    tag_34:\n        /* \"#utility.yul\":59:146   */\n      swap3\n      swap2\n      pop\n      pop\n      jump\t// out\n        /* \"#utility.yul\":152:307   */\n    tag_36:\n      0x00\n        /* \"#utility.yul\":244:250   */\n      dup2\n        /* \"#utility.yul\":231:251   */\n      calldataload\n        /* \"#utility.yul\":222:251   */\n      swap1\n      pop\n        /* \"#utility.yul\":260:301   */\n      tag_38\n        /* \"#utility.yul\":295:300   */\n      dup2\n        /* \"#utility.yul\":260:301   */\n      tag_39\n      jump\t// in\n    tag_38:\n        /* \"#utility.yul\":212:307   */\n      swap3\n      swap2\n      pop\n      pop\n      jump\t// out\n        /* \"#utility.yul\":313:575   */\n    tag_12:\n      0x00\n        /* \"#utility.yul\":421:423   */\n      0x20\n        /* \"#utility.yul\":409:418   */\n      dup3\n        /* \"#utility.yul\":400:407   */\n      dup5\n        /* \"#utility.yul\":396:419   */\n      sub\n        /* \"#utility.yul\":392:424   */\n      slt\n        /* \"#utility.yul\":389:391   */\n      iszero\n      tag_41\n      jumpi\n        /* \"#utility.yul\":437:438   */\n      0x00\n        /* \"#utility.yul\":434:435   */\n      dup1\n        /* \"#utility.yul\":427:439   */\n      revert\n        /* \"#utility.yul\":389:391   */\n    tag_41:\n        /* \"#utility.yul\":480:481   */\n      0x00\n        /* \"#utility.yul\":505:558   */\n      tag_42\n        /* \"#utility.yul\":550:557   */\n      dup5\n        /* \"#utility.yul\":541:547   */\n      dup3\n        /* \"#utility.yul\":530:539   */\n      dup6\n        /* \"#utility.yul\":526:548   */\n      add\n        /* \"#utility.yul\":505:558   */\n      tag_32\n      jump\t// in\n    tag_42:\n        /* \"#utility.yul\":495:558   */\n      swap2\n      pop\n        /* \"#utility.yul\":451:568   */\n      pop\n        /* \"#utility.yul\":379:575   */\n      swap3\n      swap2\n      pop\n      pop\n      jump\t// out\n        /* \"#utility.yul\":581:859   */\n    tag_8:\n      0x00\n        /* \"#utility.yul\":697:699   */\n      0x20\n        /* \"#utility.yul\":685:694   */\n      dup3\n        /* \"#utility.yul\":676:683   */\n      dup5\n        /* \"#utility.yul\":672:695   */\n      sub\n        /* \"#utility.yul\":668:700   */\n      slt\n        /* \"#utility.yul\":665:667   */\n      iszero\n      tag_44\n      jumpi\n        /* \"#utility.yul\":713:714   */\n      0x00\n        /* \"#utility.yul\":710:711   */\n      dup1\n        /* \"#utility.yul\":703:715   */\n      revert\n        /* \"#utility.yul\":665:667   */\n    tag_44:\n        /* \"#utility.yul\":756:757   */\n      0x00\n        /* \"#utility.yul\":781:842   */\n      tag_45\n        /* \"#utility.yul\":834:841   */\n      dup5\n        /* \"#utility.yul\":825:831   */\n      dup3\n        /* \"#utility.yul\":814:823   */\n      dup6\n        /* \"#utility.yul\":810:832   */\n      add\n        /* \"#utility.yul\":781:842   */\n      tag_36\n      jump\t// in\n    tag_45:\n        /* \"#utility.yul\":771:842   */\n      swap2\n      pop\n        /* \"#utility.yul\":727:852   */\n      pop\n        /* \"#utility.yul\":655:859   */\n      swap3\n      swap2\n      pop\n      pop\n      jump\t// out\n        /* \"#utility.yul\":865:1008   */\n    tag_46:\n        /* \"#utility.yul\":958:1001   */\n      tag_48\n        /* \"#utility.yul\":995:1000   */\n      dup2\n        /* \"#utility.yul\":958:1001   */\n      tag_49\n      jump\t// in\n    tag_48:\n        /* \"#utility.yul\":953:956   */\n      dup3\n        /* \"#utility.yul\":946:1002   */\n      mstore\n        /* \"#utility.yul\":936:1008   */\n      pop\n      pop\n      jump\t// out\n        /* \"#utility.yul\":1014:1248   */\n    tag_17:\n      0x00\n        /* \"#utility.yul\":1151:1153   */\n      0x20\n        /* \"#utility.yul\":1140:1149   */\n      dup3\n        /* \"#utility.yul\":1136:1154   */\n      add\n        /* \"#utility.yul\":1128:1154   */\n      swap1\n      pop\n        /* \"#utility.yul\":1164:1241   */\n      tag_51\n        /* \"#utility.yul\":1238:1239   */\n      0x00\n        /* \"#utility.yul\":1227:1236   */\n      dup4\n        /* \"#utility.yul\":1223:1240   */\n      add\n        /* \"#utility.yul\":1214:1220   */\n      dup5\n        /* \"#utility.yul\":1164:1241   */\n      tag_46\n      jump\t// in\n    tag_51:\n        /* \"#utility.yul\":1118:1248   */\n      swap3\n      swap2\n      pop\n      pop\n      jump\t// out\n        /* \"#utility.yul\":1254:1350   */\n    tag_52:\n      0x00\n        /* \"#utility.yul\":1320:1344   */\n      tag_54\n        /* \"#utility.yul\":1338:1343   */\n      dup3\n        /* \"#utility.yul\":1320:1344   */\n      tag_55\n      jump\t// in\n    tag_54:\n        /* \"#utility.yul\":1309:1344   */\n      swap1\n      pop\n        /* \"#utility.yul\":1299:1350   */\n      swap2\n      swap1\n      pop\n      jump\t// out\n        /* \"#utility.yul\":1356:1483   */\n    tag_56:\n      0x00\n        /* \"#utility.yul\":1430:1435   */\n      dup2\n        /* \"#utility.yul\":1419:1435   */\n      swap1\n      pop\n        /* \"#utility.yul\":1436:1477   */\n      tag_58\n        /* \"#utility.yul\":1471:1476   */\n      dup3\n        /* \"#utility.yul\":1436:1477   */\n      tag_59\n      jump\t// in\n    tag_58:\n        /* \"#utility.yul\":1409:1483   */\n      swap2\n      swap1\n      pop\n      jump\t// out\n        /* \"#utility.yul\":1489:1615   */\n    tag_55:\n      0x00\n        /* \"#utility.yul\":1566:1608   */\n      0xffffffffffffffffffffffffffffffffffffffff\n        /* \"#utility.yul\":1559:1564   */\n      dup3\n        /* \"#utility.yul\":1555:1609   */\n      and\n        /* \"#utility.yul\":1544:1609   */\n      swap1\n      pop\n        /* \"#utility.yul\":1534:1615   */\n      swap2\n      swap1\n      pop\n      jump\t// out\n        /* \"#utility.yul\":1621:1748   */\n    tag_49:\n      0x00\n        /* \"#utility.yul\":1710:1742   */\n      tag_62\n        /* \"#utility.yul\":1736:1741   */\n      dup3\n        /* \"#utility.yul\":1710:1742   */\n      tag_56\n      jump\t// in\n    tag_62:\n        /* \"#utility.yul\":1697:1742   */\n      swap1\n      pop\n        /* \"#utility.yul\":1687:1748   */\n      swap2\n      swap1\n      pop\n      jump\t// out\n        /* \"#utility.yul\":1754:1934   */\n    tag_63:\n        /* \"#utility.yul\":1802:1879   */\n      0x4e487b7100000000000000000000000000000000000000000000000000000000\n        /* \"#utility.yul\":1799:1800   */\n      0x00\n        /* \"#utility.yul\":1792:1880   */\n      mstore\n        /* \"#utility.yul\":1899:1903   */\n      0x21\n        /* \"#utility.yul\":1896:1897   */\n      0x04\n        /* \"#utility.yul\":1889:1904   */\n      mstore\n        /* \"#utility.yul\":1923:1927   */\n      0x24\n        /* \"#utility.yul\":1920:1921   */\n      0x00\n        /* \"#utility.yul\":1913:1928   */\n      revert\n        /* \"#utility.yul\":1940:2053   */\n    tag_59:\n        /* \"#utility.yul\":2021:2022   */\n      0x04\n        /* \"#utility.yul\":2014:2019   */\n      dup2\n        /* \"#utility.yul\":2011:2023   */\n      lt\n        /* \"#utility.yul\":2001:2003   */\n      tag_66\n      jumpi\n        /* \"#utility.yul\":2027:2045   */\n      tag_67\n      tag_63\n      jump\t// in\n    tag_67:\n        /* \"#utility.yul\":2001:2003   */\n    tag_66:\n        /* \"#utility.yul\":1991:2053   */\n      pop\n      jump\t// out\n        /* \"#utility.yul\":2059:2181   */\n    tag_35:\n        /* \"#utility.yul\":2132:2156   */\n      tag_69\n        /* \"#utility.yul\":2150:2155   */\n      dup2\n        /* \"#utility.yul\":2132:2156   */\n      tag_52\n      jump\t// in\n    tag_69:\n        /* \"#utility.yul\":2125:2130   */\n      dup2\n        /* \"#utility.yul\":2122:2157   */\n      eq\n        /* \"#utility.yul\":2112:2114   */\n      tag_70\n      jumpi\n        /* \"#utility.yul\":2171:2172   */\n      0x00\n        /* \"#utility.yul\":2168:2169   */\n      dup1\n        /* \"#utility.yul\":2161:2173   */\n      revert\n        /* \"#utility.yul\":2112:2114   */\n    tag_70:\n        /* \"#utility.yul\":2102:2181   */\n      pop\n      jump\t// out\n        /* \"#utility.yul\":2187:2294   */\n    tag_39:\n        /* \"#utility.yul\":2268:2269   */\n      0x04\n        /* \"#utility.yul\":2261:2266   */\n      dup2\n        /* \"#utility.yul\":2258:2270   */\n      lt\n        /* \"#utility.yul\":2248:2250   */\n      tag_72\n      jumpi\n        /* \"#utility.yul\":2284:2285   */\n      0x00\n        /* \"#utility.yul\":2281:2282   */\n      dup1\n        /* \"#utility.yul\":2274:2286   */\n      revert\n        /* \"#utility.yul\":2248:2250   */\n    tag_72:\n        /* \"#utility.yul\":2238:2294   */\n      pop\n      jump\t// out\n\n    auxdata: 0xa26469706673582212201d8f72d0a81c8529c2163f2bc96536c87d441f3f226e092061a47aad658d837764736f6c63430008000033\n}\n",
				"bytecode": {
					"linkReferences": {},
					"object": "60806040526000600360006101000a81548160ff02191690836003811115610050577f4e487b7100000000000000000000000000000000000000000000000000000000600052602160045260246000fd5b021790555034801561006157600080fd5b506040516107e23803806107e2833981810160405281019061008391906101a9565b336000806101000a81548173ffffffffffffffffffffffffffffffffffffffff021916908373ffffffffffffffffffffffffffffffffffffffff1602179055506002600160008060009054906101000a900473ffffffffffffffffffffffffffffffffffffffff1673ffffffffffffffffffffffffffffffffffffffff1673ffffffffffffffffffffffffffffffffffffffff1681526020019081526020016000206000018190555060005b8181101561018d57600260405180602001604052806000815250908060018154018082558091505060019003906000526020600020016000909190919091506000820151816000015550508080610185906101dc565b91505061012f565b505061026b565b6000815190506101a381610254565b92915050565b6000602082840312156101bb57600080fd5b60006101c984828501610194565b91505092915050565b6000819050919050565b60006101e7826101d2565b91507fffffffffffffffffffffffffffffffffffffffffffffffffffffffffffffffff82141561021a57610219610225565b5b600182019050919050565b7f4e487b7100000000000000000000000000000000000000000000000000000000600052601160045260246000fd5b61025d816101d2565b811461026857600080fd5b50565b6105688061027a6000396000f3fe608060405234801561001057600080fd5b50600436106100415760003560e01c8063268f1153146100465780634420e48614610062578063c19d93fb1461007e575b600080fd5b610060600480360381019061005b919061041e565b61009c565b005b61007c600480360381019061007791906103f5565b6101d3565b005b6100866103b8565b6040516100939190610456565b60405180910390f35b60008054906101000a900473ffffffffffffffffffffffffffffffffffffffff1673ffffffffffffffffffffffffffffffffffffffff163373ffffffffffffffffffffffffffffffffffffffff16146100f457600080fd5b600360009054906101000a900460ff16600381111561013c577f4e487b7100000000000000000000000000000000000000000000000000000000600052602160045260246000fd5b816003811115610175577f4e487b7100000000000000000000000000000000000000000000000000000000600052602160045260246000fd5b101561018057600080fd5b80600360006101000a81548160ff021916908360038111156101cb577f4e487b7100000000000000000000000000000000000000000000000000000000600052602160045260246000fd5b021790555050565b600180600381111561020e577f4e487b7100000000000000000000000000000000000000000000000000000000600052602160045260246000fd5b600360009054906101000a900460ff166003811115610256577f4e487b7100000000000000000000000000000000000000000000000000000000600052602160045260246000fd5b1461026057600080fd5b60008054906101000a900473ffffffffffffffffffffffffffffffffffffffff1673ffffffffffffffffffffffffffffffffffffffff163373ffffffffffffffffffffffffffffffffffffffff161415806103075750600160008373ffffffffffffffffffffffffffffffffffffffff1673ffffffffffffffffffffffffffffffffffffffff16815260200190815260200160002060010160009054906101000a900460ff165b15610311576103b4565b60018060008473ffffffffffffffffffffffffffffffffffffffff1673ffffffffffffffffffffffffffffffffffffffff168152602001908152602001600020600001819055506000600160008473ffffffffffffffffffffffffffffffffffffffff1673ffffffffffffffffffffffffffffffffffffffff16815260200190815260200160002060010160006101000a81548160ff0219169083151502179055505b5050565b600360009054906101000a900460ff1681565b6000813590506103da8161050b565b92915050565b6000813590506103ef81610522565b92915050565b60006020828403121561040757600080fd5b6000610415848285016103cb565b91505092915050565b60006020828403121561043057600080fd5b600061043e848285016103e0565b91505092915050565b610450816104b6565b82525050565b600060208201905061046b6000830184610447565b92915050565b600061047c82610496565b9050919050565b6000819050610491826104f7565b919050565b600073ffffffffffffffffffffffffffffffffffffffff82169050919050565b60006104c182610483565b9050919050565b7f4e487b7100000000000000000000000000000000000000000000000000000000600052602160045260246000fd5b60048110610508576105076104c8565b5b50565b61051481610471565b811461051f57600080fd5b50565b6004811061052f57600080fd5b5056fea26469706673582212201d8f72d0a81c8529c2163f2bc96536c87d441f3f226e092061a47aad658d837764736f6c63430008000033",
					"opcodes": "PUSH1 0x80 PUSH1 0x40 MSTORE PUSH1 0x0 PUSH1 0x3 PUSH1 0x0 PUSH2 0x100 EXP DUP2 SLOAD DUP2 PUSH1 0xFF MUL NOT AND SWAP1 DUP4 PUSH1 0x3 DUP2 GT ISZERO PUSH2 0x50 JUMPI PUSH32 0x4E487B7100000000000000000000000000000000000000000000000000000000 PUSH1 0x0 MSTORE PUSH1 0x21 PUSH1 0x4 MSTORE PUSH1 0x24 PUSH1 0x0 REVERT JUMPDEST MUL OR SWAP1 SSTORE POP CALLVALUE DUP1 ISZERO PUSH2 0x61 JUMPI PUSH1 0x0 DUP1 REVERT JUMPDEST POP PUSH1 0x40 MLOAD PUSH2 0x7E2 CODESIZE SUB DUP1 PUSH2 0x7E2 DUP4 CODECOPY DUP2 DUP2 ADD PUSH1 0x40 MSTORE DUP2 ADD SWAP1 PUSH2 0x83 SWAP2 SWAP1 PUSH2 0x1A9 JUMP JUMPDEST CALLER PUSH1 0x0 DUP1 PUSH2 0x100 EXP DUP2 SLOAD DUP2 PUSH20 0xFFFFFFFFFFFFFFFFFFFFFFFFFFFFFFFFFFFFFFFF MUL NOT AND SWAP1 DUP4 PUSH20 0xFFFFFFFFFFFFFFFFFFFFFFFFFFFFFFFFFFFFFFFF AND MUL OR SWAP1 SSTORE POP PUSH1 0x2 PUSH1 0x1 PUSH1 0x0 DUP1 PUSH1 0x0 SWAP1 SLOAD SWAP1 PUSH2 0x100 EXP SWAP1 DIV PUSH20 0xFFFFFFFFFFFFFFFFFFFFFFFFFFFFFFFFFFFFFFFF AND PUSH20 0xFFFFFFFFFFFFFFFFFFFFFFFFFFFFFFFFFFFFFFFF AND PUSH20 0xFFFFFFFFFFFFFFFFFFFFFFFFFFFFFFFFFFFFFFFF AND DUP2 MSTORE PUSH1 0x20 ADD SWAP1 DUP2 MSTORE PUSH1 0x20 ADD PUSH1 0x0 KECCAK256 PUSH1 0x0 ADD DUP2 SWAP1 SSTORE POP PUSH1 0x0 JUMPDEST DUP2 DUP2 LT ISZERO PUSH2 0x18D JUMPI PUSH1 0x2 PUSH1 0x40 MLOAD DUP1 PUSH1 0x20 ADD PUSH1 0x40 MSTORE DUP1 PUSH1 0x0 DUP2 MSTORE POP SWAP1 DUP1 PUSH1 0x1 DUP2 SLOAD ADD DUP1 DUP3 SSTORE DUP1 SWAP2 POP POP PUSH1 0x1 SWAP1 SUB SWAP1 PUSH1 0x0 MSTORE PUSH1 0x20 PUSH1 0x0 KECCAK256 ADD PUSH1 0x0 SWAP1 SWAP2 SWAP1 SWAP2 SWAP1 SWAP2 POP PUSH1 0x0 DUP3 ADD MLOAD DUP2 PUSH1 0x0 ADD SSTORE POP POP DUP1 DUP1 PUSH2 0x185 SWAP1 PUSH2 0x1DC JUMP JUMPDEST SWAP2 POP POP PUSH2 0x12F JUMP JUMPDEST POP POP PUSH2 0x26B JUMP JUMPDEST PUSH1 0x0 DUP2 MLOAD SWAP1 POP PUSH2 0x1A3 DUP2 PUSH2 0x254 JUMP JUMPDEST SWAP3 SWAP2 POP POP JUMP JUMPDEST PUSH1 0x0 PUSH1 0x20 DUP3 DUP5 SUB SLT ISZERO PUSH2 0x1BB JUMPI PUSH1 0x0 DUP1 REVERT JUMPDEST PUSH1 0x0 PUSH2 0x1C9 DUP5 DUP3 DUP6 ADD PUSH2 0x194 JUMP JUMPDEST SWAP2 POP POP SWAP3 SWAP2 POP POP JUMP JUMPDEST PUSH1 0x0 DUP2 SWAP1 POP SWAP2 SWAP1 POP JUMP JUMPDEST PUSH1 0x0 PUSH2 0x1E7 DUP3 PUSH2 0x1D2 JUMP JUMPDEST SWAP2 POP PUSH32 0xFFFFFFFFFFFFFFFFFFFFFFFFFFFFFFFFFFFFFFFFFFFFFFFFFFFFFFFFFFFFFFFF DUP3 EQ ISZERO PUSH2 0x21A JUMPI PUSH2 0x219 PUSH2 0x225 JUMP JUMPDEST JUMPDEST PUSH1 0x1 DUP3 ADD SWAP1 POP SWAP2 SWAP1 POP JUMP JUMPDEST PUSH32 0x4E487B7100000000000000000000000000000000000000000000000000000000 PUSH1 0x0 MSTORE PUSH1 0x11 PUSH1 0x4 MSTORE PUSH1 0x24 PUSH1 0x0 REVERT JUMPDEST PUSH2 0x25D DUP2 PUSH2 0x1D2 JUMP JUMPDEST DUP2 EQ PUSH2 0x268 JUMPI PUSH1 0x0 DUP1 REVERT JUMPDEST POP JUMP JUMPDEST PUSH2 0x568 DUP1 PUSH2 0x27A PUSH1 0x0 CODECOPY PUSH1 0x0 RETURN INVALID PUSH1 0x80 PUSH1 0x40 MSTORE CALLVALUE DUP1 ISZERO PUSH2 0x10 JUMPI PUSH1 0x0 DUP1 REVERT JUMPDEST POP PUSH1 0x4 CALLDATASIZE LT PUSH2 0x41 JUMPI PUSH1 0x0 CALLDATALOAD PUSH1 0xE0 SHR DUP1 PUSH4 0x268F1153 EQ PUSH2 0x46 JUMPI DUP1 PUSH4 0x4420E486 EQ PUSH2 0x62 JUMPI DUP1 PUSH4 0xC19D93FB EQ PUSH2 0x7E JUMPI JUMPDEST PUSH1 0x0 DUP1 REVERT JUMPDEST PUSH2 0x60 PUSH1 0x4 DUP1 CALLDATASIZE SUB DUP2 ADD SWAP1 PUSH2 0x5B SWAP2 SWAP1 PUSH2 0x41E JUMP JUMPDEST PUSH2 0x9C JUMP JUMPDEST STOP JUMPDEST PUSH2 0x7C PUSH1 0x4 DUP1 CALLDATASIZE SUB DUP2 ADD SWAP1 PUSH2 0x77 SWAP2 SWAP1 PUSH2 0x3F5 JUMP JUMPDEST PUSH2 0x1D3 JUMP JUMPDEST STOP JUMPDEST PUSH2 0x86 PUSH2 0x3B8 JUMP JUMPDEST PUSH1 0x40 MLOAD PUSH2 0x93 SWAP2 SWAP1 PUSH2 0x456 JUMP JUMPDEST PUSH1 0x40 MLOAD DUP1 SWAP2 SUB SWAP1 RETURN JUMPDEST PUSH1 0x0 DUP1 SLOAD SWAP1 PUSH2 0x100 EXP SWAP1 DIV PUSH20 0xFFFFFFFFFFFFFFFFFFFFFFFFFFFFFFFFFFFFFFFF AND PUSH20 0xFFFFFFFFFFFFFFFFFFFFFFFFFFFFFFFFFFFFFFFF AND CALLER PUSH20 0xFFFFFFFFFFFFFFFFFFFFFFFFFFFFFFFFFFFFFFFF AND EQ PUSH2 0xF4 JUMPI PUSH1 0x0 DUP1 REVERT JUMPDEST PUSH1 0x3 PUSH1 0x0 SWAP1 SLOAD SWAP1 PUSH2 0x100 EXP SWAP1 DIV PUSH1 0xFF AND PUSH1 0x3 DUP2 GT ISZERO PUSH2 0x13C JUMPI PUSH32 0x4E487B7100000000000000000000000000000000000000000000000000000000 PUSH1 0x0 MSTORE PUSH1 0x21 PUSH1 0x4 MSTORE PUSH1 0x24 PUSH1 0x0 REVERT JUMPDEST DUP2 PUSH1 0x3 DUP2 GT ISZERO PUSH2 0x175 JUMPI PUSH32 0x4E487B7100000000000000000000000000000000000000000000000000000000 PUSH1 0x0 MSTORE PUSH1 0x21 PUSH1 0x4 MSTORE PUSH1 0x24 PUSH1 0x0 REVERT JUMPDEST LT ISZERO PUSH2 0x180 JUMPI PUSH1 0x0 DUP1 REVERT JUMPDEST DUP1 PUSH1 0x3 PUSH1 0x0 PUSH2 0x100 EXP DUP2 SLOAD DUP2 PUSH1 0xFF MUL NOT AND SWAP1 DUP4 PUSH1 0x3 DUP2 GT ISZERO PUSH2 0x1CB JUMPI PUSH32 0x4E487B7100000000000000000000000000000000000000000000000000000000 PUSH1 0x0 MSTORE PUSH1 0x21 PUSH1 0x4 MSTORE PUSH1 0x24 PUSH1 0x0 REVERT JUMPDEST MUL OR SWAP1 SSTORE POP POP JUMP JUMPDEST PUSH1 0x1 DUP1 PUSH1 0x3 DUP2 GT ISZERO PUSH2 0x20E JUMPI PUSH32 0x4E487B7100000000000000000000000000000000000000000000000000000000 PUSH1 0x0 MSTORE PUSH1 0x21 PUSH1 0x4 MSTORE PUSH1 0x24 PUSH1 0x0 REVERT JUMPDEST PUSH1 0x3 PUSH1 0x0 SWAP1 SLOAD SWAP1 PUSH2 0x100 EXP SWAP1 DIV PUSH1 0xFF AND PUSH1 0x3 DUP2 GT ISZERO PUSH2 0x256 JUMPI PUSH32 0x4E487B7100000000000000000000000000000000000000000000000000000000 PUSH1 0x0 MSTORE PUSH1 0x21 PUSH1 0x4 MSTORE PUSH1 0x24 PUSH1 0x0 REVERT JUMPDEST EQ PUSH2 0x260 JUMPI PUSH1 0x0 DUP1 REVERT JUMPDEST PUSH1 0x0 DUP1 SLOAD SWAP1 PUSH2 0x100 EXP SWAP1 DIV PUSH20 0xFFFFFFFFFFFFFFFFFFFFFFFFFFFFFFFFFFFFFFFF AND PUSH20 0xFFFFFFFFFFFFFFFFFFFFFFFFFFFFFFFFFFFFFFFF AND CALLER PUSH20 0xFFFFFFFFFFFFFFFFFFFFFFFFFFFFFFFFFFFFFFFF AND EQ ISZERO DUP1 PUSH2 0x307 JUMPI POP PUSH1 0x1 PUSH1 0x0 DUP4 PUSH20 0xFFFFFFFFFFFFFFFFFFFFFFFFFFFFFFFFFFFFFFFF AND PUSH20 0xFFFFFFFFFFFFFFFFFFFFFFFFFFFFFFFFFFFFFFFF AND DUP2 MSTORE PUSH1 0x20 ADD SWAP1 DUP2 MSTORE PUSH1 0x20 ADD PUSH1 0x0 KECCAK256 PUSH1 0x1 ADD PUSH1 0x0 SWAP1 SLOAD SWAP1 PUSH2 0x100 EXP SWAP1 DIV PUSH1 0xFF AND JUMPDEST ISZERO PUSH2 0x311 JUMPI PUSH2 0x3B4 JUMP JUMPDEST PUSH1 0x1 DUP1 PUSH1 0x0 DUP5 PUSH20 0xFFFFFFFFFFFFFFFFFFFFFFFFFFFFFFFFFFFFFFFF AND PUSH20 0xFFFFFFFFFFFFFFFFFFFFFFFFFFFFFFFFFFFFFFFF AND DUP2 MSTORE PUSH1 0x20 ADD SWAP1 DUP2 MSTORE PUSH1 0x20 ADD PUSH1 0x0 KECCAK256 PUSH1 0x0 ADD DUP2 SWAP1 SSTORE POP PUSH1 0x0 PUSH1 0x1 PUSH1 0x0 DUP5 PUSH20 0xFFFFFFFFFFFFFFFFFFFFFFFFFFFFFFFFFFFFFFFF AND PUSH20 0xFFFFFFFFFFFFFFFFFFFFFFFFFFFFFFFFFFFFFFFF AND DUP2 MSTORE PUSH1 0x20 ADD SWAP1 DUP2 MSTORE PUSH1 0x20 ADD PUSH1 0x0 KECCAK256 PUSH1 0x1 ADD PUSH1 0x0 PUSH2 0x100 EXP DUP2 SLOAD DUP2 PUSH1 0xFF MUL NOT AND SWAP1 DUP4 ISZERO ISZERO MUL OR SWAP1 SSTORE POP JUMPDEST POP POP JUMP JUMPDEST PUSH1 0x3 PUSH1 0x0 SWAP1 SLOAD SWAP1 PUSH2 0x100 EXP SWAP1 DIV PUSH1 0xFF AND DUP2 JUMP JUMPDEST PUSH1 0x0 DUP2 CALLDATALOAD SWAP1 POP PUSH2 0x3DA DUP2 PUSH2 0x50B JUMP JUMPDEST SWAP3 SWAP2 POP POP JUMP JUMPDEST PUSH1 0x0 DUP2 CALLDATALOAD SWAP1 POP PUSH2 0x3EF DUP2 PUSH2 0x522 JUMP JUMPDEST SWAP3 SWAP2 POP POP JUMP JUMPDEST PUSH1 0x0 PUSH1 0x20 DUP3 DUP5 SUB SLT ISZERO PUSH2 0x407 JUMPI PUSH1 0x0 DUP1 REVERT JUMPDEST PUSH1 0x0 PUSH2 0x415 DUP5 DUP3 DUP6 ADD PUSH2 0x3CB JUMP JUMPDEST SWAP2 POP POP SWAP3 SWAP2 POP POP JUMP JUMPDEST PUSH1 0x0 PUSH1 0x20 DUP3 DUP5 SUB SLT ISZERO PUSH2 0x430 JUMPI PUSH1 0x0 DUP1 REVERT JUMPDEST PUSH1 0x0 PUSH2 0x43E DUP5 DUP3 DUP6 ADD PUSH2 0x3E0 JUMP JUMPDEST SWAP2 POP POP SWAP3 SWAP2 POP POP JUMP JUMPDEST PUSH2 0x450 DUP2 PUSH2 0x4B6 JUMP JUMPDEST DUP3 MSTORE POP POP JUMP JUMPDEST PUSH1 0x0 PUSH1 0x20 DUP3 ADD SWAP1 POP PUSH2 0x46B PUSH1 0x0 DUP4 ADD DUP5 PUSH2 0x447 JUMP JUMPDEST SWAP3 SWAP2 POP POP JUMP JUMPDEST PUSH1 0x0 PUSH2 0x47C DUP3 PUSH2 0x496 JUMP JUMPDEST SWAP1 POP SWAP2 SWAP1 POP JUMP JUMPDEST PUSH1 0x0 DUP2 SWAP1 POP PUSH2 0x491 DUP3 PUSH2 0x4F7 JUMP JUMPDEST SWAP2 SWAP1 POP JUMP JUMPDEST PUSH1 0x0 PUSH20 0xFFFFFFFFFFFFFFFFFFFFFFFFFFFFFFFFFFFFFFFF DUP3 AND SWAP1 POP SWAP2 SWAP1 POP JUMP JUMPDEST PUSH1 0x0 PUSH2 0x4C1 DUP3 PUSH2 0x483 JUMP JUMPDEST SWAP1 POP SWAP2 SWAP1 POP JUMP JUMPDEST PUSH32 0x4E487B7100000000000000000000000000000000000000000000000000000000 PUSH1 0x0 MSTORE PUSH1 0x21 PUSH1 0x4 MSTORE PUSH1 0x24 PUSH1 0x0 REVERT JUMPDEST PUSH1 0x4 DUP2 LT PUSH2 0x508 JUMPI PUSH2 0x507 PUSH2 0x4C8 JUMP JUMPDEST JUMPDEST POP JUMP JUMPDEST PUSH2 0x514 DUP2 PUSH2 0x471 JUMP JUMPDEST DUP2 EQ PUSH2 0x51F JUMPI PUSH1 0x0 DUP1 REVERT JUMPDEST POP JUMP JUMPDEST PUSH1 0x4 DUP2 LT PUSH2 0x52F JUMPI PUSH1 0x0 DUP1 REVERT JUMPDEST POP JUMP INVALID LOG2 PUSH5 0x6970667358 0x22 SLT KECCAK256 SAR DUP16 PUSH19 0xD0A81C8529C2163F2BC96536C87D441F3F226E MULMOD KECCAK256 PUSH2 0xA47A 0xAD PUSH6 0x8D837764736F PUSH13 0x63430008000033000000000000 "
				},
				"gasEstimates": {
					"creation": {
						"codeDepositCost": "276800",
						"executionCost": "infinite",
						"totalCost": "infinite"
					},
					"external": {
						"changeState(uint8)": "23009",
						"register(address)": "44272",
						"state()": "1282"
					}
				},
				"methodIdentifiers": {
					"changeState(uint8)": "268f1153",
					"register(address)": "4420e486",
					"state()": "c19d93fb"
				}
			},
			"storageLayout": {
				"storage": [
					{
						"astId": 13,
						"contract": "BallotV2.sol:BallotV2",
						"label": "chariperson",
						"offset": 0,
						"slot": "0",
						"type": "t_address"
					},
					{
						"astId": 18,
						"contract": "BallotV2.sol:BallotV2",
						"label": "voters",
						"offset": 0,
						"slot": "1",
						"type": "t_mapping(t_address,t_struct(Voter)8_storage)"
					},
					{
						"astId": 22,
						"contract": "BallotV2.sol:BallotV2",
						"label": "proposals",
						"offset": 0,
						"slot": "2",
						"type": "t_array(t_struct(Proposal)11_storage)dyn_storage"
					},
					{
						"astId": 32,
						"contract": "BallotV2.sol:BallotV2",
						"label": "state",
						"offset": 0,
						"slot": "3",
						"type": "t_enum(Phase)27"
					}
				],
				"types": {
					"t_address": {
						"encoding": "inplace",
						"label": "address",
						"numberOfBytes": "20"
					},
					"t_array(t_struct(Proposal)11_storage)dyn_storage": {
						"base": "t_struct(Proposal)11_storage",
						"encoding": "dynamic_array",
						"label": "struct BallotV2.Proposal[]",
						"numberOfBytes": "32"
					},
					"t_bool": {
						"encoding": "inplace",
						"label": "bool",
						"numberOfBytes": "1"
					},
					"t_enum(Phase)27": {
						"encoding": "inplace",
						"label": "enum BallotV2.Phase",
						"numberOfBytes": "1"
					},
					"t_mapping(t_address,t_struct(Voter)8_storage)": {
						"encoding": "mapping",
						"key": "t_address",
						"label": "mapping(address => struct BallotV2.Voter)",
						"numberOfBytes": "32",
						"value": "t_struct(Voter)8_storage"
					},
					"t_struct(Proposal)11_storage": {
						"encoding": "inplace",
						"label": "struct BallotV2.Proposal",
						"members": [
							{
								"astId": 10,
								"contract": "BallotV2.sol:BallotV2",
								"label": "voteCount",
								"offset": 0,
								"slot": "0",
								"type": "t_uint256"
							}
						],
						"numberOfBytes": "32"
					},
					"t_struct(Voter)8_storage": {
						"encoding": "inplace",
						"label": "struct BallotV2.Voter",
						"members": [
							{
								"astId": 3,
								"contract": "BallotV2.sol:BallotV2",
								"label": "weight",
								"offset": 0,
								"slot": "0",
								"type": "t_uint256"
							},
							{
								"astId": 5,
								"contract": "BallotV2.sol:BallotV2",
								"label": "voted",
								"offset": 0,
								"slot": "1",
								"type": "t_bool"
							},
							{
								"astId": 7,
								"contract": "BallotV2.sol:BallotV2",
								"label": "vote",
								"offset": 0,
								"slot": "2",
								"type": "t_uint256"
							}
						],
						"numberOfBytes": "96"
					},
					"t_uint256": {
						"encoding": "inplace",
						"label": "uint256",
						"numberOfBytes": "32"
					}
				}
			},
			"userdoc": {
				"kind": "user",
				"methods": {},
				"version": 1
			}
		}
	}
}