{
	"BallotV2.sol": {
		"BallotV2": {
			"abi": [
				{
					"inputs": [
						{
							"internalType": "uint256",
							"name": "numProposal",
							"type": "uint256"
						}
					],
					"stateMutability": "nonpayable",
					"type": "constructor"
				},
				{
					"inputs": [
						{
							"internalType": "enum BallotV2.Phase",
							"name": "x",
							"type": "uint8"
						}
					],
					"name": "changeState",
					"outputs": [],
					"stateMutability": "nonpayable",
					"type": "function"
				},
				{
					"inputs": [
						{
							"internalType": "address",
							"name": "voter",
							"type": "address"
						}
					],
					"name": "register",
					"outputs": [],
					"stateMutability": "nonpayable",
					"type": "function"
				},
				{
					"inputs": [],
					"name": "reqWinner",
					"outputs": [
						{
							"internalType": "uint256",
							"name": "winningProposal",
							"type": "uint256"
						}
					],
					"stateMutability": "view",
					"type": "function"
				},
				{
					"inputs": [],
					"name": "state",
					"outputs": [
						{
							"internalType": "enum BallotV2.Phase",
							"name": "",
							"type": "uint8"
						}
					],
					"stateMutability": "view",
					"type": "function"
				},
				{
					"inputs": [
						{
							"internalType": "uint256",
							"name": "toProposal",
							"type": "uint256"
						}
					],
					"name": "vote",
					"outputs": [],
					"stateMutability": "nonpayable",
					"type": "function"
				}
			],
			"devdoc": {
				"kind": "dev",
				"methods": {},
				"version": 1
			},
			"evm": {
				"assembly": "    /* \"BallotV2.sol\":23:1667  contract BallotV2 {... */\n  mstore(0x40, 0x80)\n    /* \"BallotV2.sol\":307:317  Phase.Init */\n  0x00\n    /* \"BallotV2.sol\":286:317  Phase public state = Phase.Init */\n  0x03\n  exp(0x0100, 0x00)\n  dup2\n  sload\n  dup2\n  0xff\n  mul\n  not\n  and\n  swap1\n  dup4\n  0x03\n  dup2\n  gt\n  iszero\n  tag_1\n  jumpi\n  mstore(0x00, 0x4e487b7100000000000000000000000000000000000000000000000000000000)\n  mstore(0x04, 0x21)\n  revert(0x00, 0x24)\ntag_1:\n  mul\n  or\n  swap1\n  sstore\n  pop\n    /* \"BallotV2.sol\":397:598  constructor (uint numProposal) public {... */\n  callvalue\n  dup1\n  iszero\n  tag_2\n  jumpi\n  0x00\n  dup1\n  revert\ntag_2:\n  pop\n  mload(0x40)\n  sub(codesize, bytecodeSize)\n  dup1\n  bytecodeSize\n  dup4\n  codecopy\n  dup2\n  dup2\n  add\n  0x40\n  mstore\n  dup2\n  add\n  swap1\n  tag_3\n  swap2\n  swap1\n  tag_4\n  jump\t// in\ntag_3:\n    /* \"BallotV2.sol\":455:465  msg.sender */\n  caller\n    /* \"BallotV2.sol\":441:452  chariperson */\n  0x00\n  dup1\n    /* \"BallotV2.sol\":441:465  chariperson = msg.sender */\n  0x0100\n  exp\n  dup2\n  sload\n  dup2\n  0xffffffffffffffffffffffffffffffffffffffff\n  mul\n  not\n  and\n  swap1\n  dup4\n  0xffffffffffffffffffffffffffffffffffffffff\n  and\n  mul\n  or\n  swap1\n  sstore\n  pop\n    /* \"BallotV2.sol\":500:501  2 */\n  0x02\n    /* \"BallotV2.sol\":471:477  voters */\n  0x01\n    /* \"BallotV2.sol\":471:490  voters[chariperson] */\n  0x00\n    /* \"BallotV2.sol\":478:489  chariperson */\n  dup1\n  0x00\n  swap1\n  sload\n  swap1\n  0x0100\n  exp\n  swap1\n  div\n  0xffffffffffffffffffffffffffffffffffffffff\n  and\n    /* \"BallotV2.sol\":471:490  voters[chariperson] */\n  0xffffffffffffffffffffffffffffffffffffffff\n  and\n  0xffffffffffffffffffffffffffffffffffffffff\n  and\n  dup2\n  mstore\n  0x20\n  add\n  swap1\n  dup2\n  mstore\n  0x20\n  add\n  0x00\n  keccak256\n    /* \"BallotV2.sol\":471:497  voters[chariperson].weight */\n  0x00\n  add\n    /* \"BallotV2.sol\":471:501  voters[chariperson].weight = 2 */\n  dup2\n  swap1\n  sstore\n  pop\n    /* \"BallotV2.sol\":511:520  uint prop */\n  0x00\n    /* \"BallotV2.sol\":507:594  for(uint prop=0; prop < numProposal; prop++) {... */\ntag_7:\n    /* \"BallotV2.sol\":531:542  numProposal */\n  dup2\n    /* \"BallotV2.sol\":524:528  prop */\n  dup2\n    /* \"BallotV2.sol\":524:542  prop < numProposal */\n  lt\n    /* \"BallotV2.sol\":507:594  for(uint prop=0; prop < numProposal; prop++) {... */\n  iszero\n  tag_8\n  jumpi\n    /* \"BallotV2.sol\":560:569  proposals */\n  0x02\n    /* \"BallotV2.sol\":575:586  Proposal(0) */\n  mload(0x40)\n  dup1\n  0x20\n  add\n  0x40\n  mstore\n  dup1\n    /* \"BallotV2.sol\":584:585  0 */\n  0x00\n    /* \"BallotV2.sol\":575:586  Proposal(0) */\n  dup2\n  mstore\n  pop\n    /* \"BallotV2.sol\":560:587  proposals.push(Proposal(0)) */\n  swap1\n  dup1\n  0x01\n  dup2\n  sload\n  add\n  dup1\n  dup3\n  sstore\n  dup1\n  swap2\n  pop\n  pop\n  0x01\n  swap1\n  sub\n  swap1\n  0x00\n  mstore\n  keccak256(0x00, 0x20)\n  add\n  0x00\n  swap1\n  swap2\n  swap1\n  swap2\n  swap1\n  swap2\n  pop\n  0x00\n  dup3\n  add\n  mload\n  dup2\n  0x00\n  add\n  sstore\n  pop\n  pop\n    /* \"BallotV2.sol\":544:550  prop++ */\n  dup1\n  dup1\n  tag_11\n  swap1\n  tag_12\n  jump\t// in\ntag_11:\n  swap2\n  pop\n  pop\n    /* \"BallotV2.sol\":507:594  for(uint prop=0; prop < numProposal; prop++) {... */\n  jump(tag_7)\ntag_8:\n  pop\n    /* \"BallotV2.sol\":397:598  constructor (uint numProposal) public {... */\n  pop\n    /* \"BallotV2.sol\":23:1667  contract BallotV2 {... */\n  jump(tag_13)\n    /* \"#utility.yul\":7:150   */\ntag_15:\n  0x00\n    /* \"#utility.yul\":95:101   */\n  dup2\n    /* \"#utility.yul\":89:102   */\n  mload\n    /* \"#utility.yul\":80:102   */\n  swap1\n  pop\n    /* \"#utility.yul\":111:144   */\n  tag_17\n    /* \"#utility.yul\":138:143   */\n  dup2\n    /* \"#utility.yul\":111:144   */\n  tag_18\n  jump\t// in\ntag_17:\n    /* \"#utility.yul\":70:150   */\n  swap3\n  swap2\n  pop\n  pop\n  jump\t// out\n    /* \"#utility.yul\":156:440   */\ntag_4:\n  0x00\n    /* \"#utility.yul\":275:277   */\n  0x20\n    /* \"#utility.yul\":263:272   */\n  dup3\n    /* \"#utility.yul\":254:261   */\n  dup5\n    /* \"#utility.yul\":250:273   */\n  sub\n    /* \"#utility.yul\":246:278   */\n  slt\n    /* \"#utility.yul\":243:245   */\n  iszero\n  tag_20\n  jumpi\n    /* \"#utility.yul\":291:292   */\n  0x00\n    /* \"#utility.yul\":288:289   */\n  dup1\n    /* \"#utility.yul\":281:293   */\n  revert\n    /* \"#utility.yul\":243:245   */\ntag_20:\n    /* \"#utility.yul\":334:335   */\n  0x00\n    /* \"#utility.yul\":359:423   */\n  tag_21\n    /* \"#utility.yul\":415:422   */\n  dup5\n    /* \"#utility.yul\":406:412   */\n  dup3\n    /* \"#utility.yul\":395:404   */\n  dup6\n    /* \"#utility.yul\":391:413   */\n  add\n    /* \"#utility.yul\":359:423   */\n  tag_15\n  jump\t// in\ntag_21:\n    /* \"#utility.yul\":349:423   */\n  swap2\n  pop\n    /* \"#utility.yul\":305:433   */\n  pop\n    /* \"#utility.yul\":233:440   */\n  swap3\n  swap2\n  pop\n  pop\n  jump\t// out\n    /* \"#utility.yul\":446:523   */\ntag_22:\n  0x00\n    /* \"#utility.yul\":512:517   */\n  dup2\n    /* \"#utility.yul\":501:517   */\n  swap1\n  pop\n    /* \"#utility.yul\":491:523   */\n  swap2\n  swap1\n  pop\n  jump\t// out\n    /* \"#utility.yul\":529:762   */\ntag_12:\n  0x00\n    /* \"#utility.yul\":591:615   */\n  tag_25\n    /* \"#utility.yul\":609:614   */\n  dup3\n    /* \"#utility.yul\":591:615   */\n  tag_22\n  jump\t// in\ntag_25:\n    /* \"#utility.yul\":582:615   */\n  swap2\n  pop\n    /* \"#utility.yul\":637:703   */\n  0xffffffffffffffffffffffffffffffffffffffffffffffffffffffffffffffff\n    /* \"#utility.yul\":630:635   */\n  dup3\n    /* \"#utility.yul\":627:704   */\n  eq\n    /* \"#utility.yul\":624:626   */\n  iszero\n  tag_26\n  jumpi\n    /* \"#utility.yul\":707:725   */\n  tag_27\n  tag_28\n  jump\t// in\ntag_27:\n    /* \"#utility.yul\":624:626   */\ntag_26:\n    /* \"#utility.yul\":754:755   */\n  0x01\n    /* \"#utility.yul\":747:752   */\n  dup3\n    /* \"#utility.yul\":743:756   */\n  add\n    /* \"#utility.yul\":736:756   */\n  swap1\n  pop\n    /* \"#utility.yul\":572:762   */\n  swap2\n  swap1\n  pop\n  jump\t// out\n    /* \"#utility.yul\":768:948   */\ntag_28:\n    /* \"#utility.yul\":816:893   */\n  0x4e487b7100000000000000000000000000000000000000000000000000000000\n    /* \"#utility.yul\":813:814   */\n  0x00\n    /* \"#utility.yul\":806:894   */\n  mstore\n    /* \"#utility.yul\":913:917   */\n  0x11\n    /* \"#utility.yul\":910:911   */\n  0x04\n    /* \"#utility.yul\":903:918   */\n  mstore\n    /* \"#utility.yul\":937:941   */\n  0x24\n    /* \"#utility.yul\":934:935   */\n  0x00\n    /* \"#utility.yul\":927:942   */\n  revert\n    /* \"#utility.yul\":954:1076   */\ntag_18:\n    /* \"#utility.yul\":1027:1051   */\n  tag_31\n    /* \"#utility.yul\":1045:1050   */\n  dup2\n    /* \"#utility.yul\":1027:1051   */\n  tag_22\n  jump\t// in\ntag_31:\n    /* \"#utility.yul\":1020:1025   */\n  dup2\n    /* \"#utility.yul\":1017:1052   */\n  eq\n    /* \"#utility.yul\":1007:1009   */\n  tag_32\n  jumpi\n    /* \"#utility.yul\":1066:1067   */\n  0x00\n    /* \"#utility.yul\":1063:1064   */\n  dup1\n    /* \"#utility.yul\":1056:1068   */\n  revert\n    /* \"#utility.yul\":1007:1009   */\ntag_32:\n    /* \"#utility.yul\":997:1076   */\n  pop\n  jump\t// out\n    /* \"BallotV2.sol\":23:1667  contract BallotV2 {... */\ntag_13:\n  dataSize(sub_0)\n  dup1\n  dataOffset(sub_0)\n  0x00\n  codecopy\n  0x00\n  return\nstop\n\nsub_0: assembly {\n        /* \"BallotV2.sol\":23:1667  contract BallotV2 {... */\n      mstore(0x40, 0x80)\n      callvalue\n      dup1\n      iszero\n      tag_1\n      jumpi\n      0x00\n      dup1\n      revert\n    tag_1:\n      pop\n      jumpi(tag_2, lt(calldatasize, 0x04))\n      shr(0xe0, calldataload(0x00))\n      dup1\n      0x0121b93f\n      eq\n      tag_3\n      jumpi\n      dup1\n      0x268f1153\n      eq\n      tag_4\n      jumpi\n      dup1\n      0x4420e486\n      eq\n      tag_5\n      jumpi\n      dup1\n      0x508b30c9\n      eq\n      tag_6\n      jumpi\n      dup1\n      0xc19d93fb\n      eq\n      tag_7\n      jumpi\n    tag_2:\n      0x00\n      dup1\n      revert\n        /* \"BallotV2.sol\":1031:1322  function vote(uint toProposal) public validatePhase(Phase.Vote) {... */\n    tag_3:\n      tag_8\n      0x04\n      dup1\n      calldatasize\n      sub\n      dup2\n      add\n      swap1\n      tag_9\n      swap2\n      swap1\n      tag_10\n      jump\t// in\n    tag_9:\n      tag_11\n      jump\t// in\n    tag_8:\n      stop\n        /* \"BallotV2.sol\":664:823  function changeState(Phase x) public {... */\n    tag_4:\n      tag_12\n      0x04\n      dup1\n      calldatasize\n      sub\n      dup2\n      add\n      swap1\n      tag_13\n      swap2\n      swap1\n      tag_14\n      jump\t// in\n    tag_13:\n      tag_15\n      jump\t// in\n    tag_12:\n      stop\n        /* \"BallotV2.sol\":827:1027  function register(address voter) public validatePhase(Phase.Regs) {... */\n    tag_5:\n      tag_16\n      0x04\n      dup1\n      calldatasize\n      sub\n      dup2\n      add\n      swap1\n      tag_17\n      swap2\n      swap1\n      tag_18\n      jump\t// in\n    tag_17:\n      tag_19\n      jump\t// in\n    tag_16:\n      stop\n        /* \"BallotV2.sol\":1326:1665  function reqWinner() public validatePhase(Phase.Done) view returns (uint winningProposal) {... */\n    tag_6:\n      tag_20\n      tag_21\n      jump\t// in\n    tag_20:\n      mload(0x40)\n      tag_22\n      swap2\n      swap1\n      tag_23\n      jump\t// in\n    tag_22:\n      mload(0x40)\n      dup1\n      swap2\n      sub\n      swap1\n      return\n        /* \"BallotV2.sol\":286:317  Phase public state = Phase.Init */\n    tag_7:\n      tag_24\n      tag_25\n      jump\t// in\n    tag_24:\n      mload(0x40)\n      tag_26\n      swap2\n      swap1\n      tag_27\n      jump\t// in\n    tag_26:\n      mload(0x40)\n      dup1\n      swap2\n      sub\n      swap1\n      return\n        /* \"BallotV2.sol\":1031:1322  function vote(uint toProposal) public validatePhase(Phase.Vote) {... */\n    tag_11:\n        /* \"BallotV2.sol\":1083:1093  Phase.Vote */\n      0x02\n        /* \"BallotV2.sol\":379:380  p */\n      dup1\n        /* \"BallotV2.sol\":370:380  state == p */\n      0x03\n      dup2\n      gt\n      iszero\n      tag_29\n      jumpi\n      mstore(0x00, 0x4e487b7100000000000000000000000000000000000000000000000000000000)\n      mstore(0x04, 0x21)\n      revert(0x00, 0x24)\n    tag_29:\n        /* \"BallotV2.sol\":370:375  state */\n      0x03\n      0x00\n      swap1\n      sload\n      swap1\n      0x0100\n      exp\n      swap1\n      div\n      0xff\n      and\n        /* \"BallotV2.sol\":370:380  state == p */\n      0x03\n      dup2\n      gt\n      iszero\n      tag_30\n      jumpi\n      mstore(0x00, 0x4e487b7100000000000000000000000000000000000000000000000000000000)\n      mstore(0x04, 0x21)\n      revert(0x00, 0x24)\n    tag_30:\n      eq\n        /* \"BallotV2.sol\":362:381  require(state == p) */\n      tag_31\n      jumpi\n      0x00\n      dup1\n      revert\n    tag_31:\n        /* \"BallotV2.sol\":1101:1120  Voter memory sender */\n      0x00\n        /* \"BallotV2.sol\":1123:1129  voters */\n      0x01\n        /* \"BallotV2.sol\":1123:1141  voters[msg.sender] */\n      0x00\n        /* \"BallotV2.sol\":1130:1140  msg.sender */\n      caller\n        /* \"BallotV2.sol\":1123:1141  voters[msg.sender] */\n      0xffffffffffffffffffffffffffffffffffffffff\n      and\n      0xffffffffffffffffffffffffffffffffffffffff\n      and\n      dup2\n      mstore\n      0x20\n      add\n      swap1\n      dup2\n      mstore\n      0x20\n      add\n      0x00\n      keccak256\n        /* \"BallotV2.sol\":1101:1141  Voter memory sender = voters[msg.sender] */\n      mload(0x40)\n      dup1\n      0x60\n      add\n      0x40\n      mstore\n      swap1\n      dup2\n      0x00\n      dup3\n      add\n      sload\n      dup2\n      mstore\n      0x20\n      add\n      0x01\n      dup3\n      add\n      0x00\n      swap1\n      sload\n      swap1\n      0x0100\n      exp\n      swap1\n      div\n      0xff\n      and\n      iszero\n      iszero\n      iszero\n      iszero\n      dup2\n      mstore\n      0x20\n      add\n      0x02\n      dup3\n      add\n      sload\n      dup2\n      mstore\n      pop\n      pop\n      swap1\n      pop\n        /* \"BallotV2.sol\":1151:1157  sender */\n      dup1\n        /* \"BallotV2.sol\":1151:1163  sender.voted */\n      0x20\n      add\n      mload\n        /* \"BallotV2.sol\":1151:1196  sender.voted || toProposal > proposals.length */\n      dup1\n      tag_33\n      jumpi\n      pop\n        /* \"BallotV2.sol\":1180:1189  proposals */\n      0x02\n        /* \"BallotV2.sol\":1180:1196  proposals.length */\n      dup1\n      sload\n      swap1\n      pop\n        /* \"BallotV2.sol\":1167:1177  toProposal */\n      dup4\n        /* \"BallotV2.sol\":1167:1196  toProposal > proposals.length */\n      gt\n        /* \"BallotV2.sol\":1151:1196  sender.voted || toProposal > proposals.length */\n    tag_33:\n        /* \"BallotV2.sol\":1147:1206  if (sender.voted || toProposal > proposals.length) revert() */\n      iszero\n      tag_34\n      jumpi\n        /* \"BallotV2.sol\":1198:1206  revert() */\n      0x00\n      dup1\n      revert\n        /* \"BallotV2.sol\":1147:1206  if (sender.voted || toProposal > proposals.length) revert() */\n    tag_34:\n        /* \"BallotV2.sol\":1228:1232  true */\n      0x01\n        /* \"BallotV2.sol\":1213:1219  sender */\n      dup2\n        /* \"BallotV2.sol\":1213:1225  sender.voted */\n      0x20\n      add\n        /* \"BallotV2.sol\":1213:1232  sender.voted = true */\n      swap1\n      iszero\n      iszero\n      swap1\n      dup2\n      iszero\n      iszero\n      dup2\n      mstore\n      pop\n      pop\n        /* \"BallotV2.sol\":1253:1263  toProposal */\n      dup3\n        /* \"BallotV2.sol\":1238:1244  sender */\n      dup2\n        /* \"BallotV2.sol\":1238:1249  sender.vote */\n      0x40\n      add\n        /* \"BallotV2.sol\":1238:1263  sender.vote  = toProposal */\n      dup2\n      dup2\n      mstore\n      pop\n      pop\n        /* \"BallotV2.sol\":1304:1310  sender */\n      dup1\n        /* \"BallotV2.sol\":1304:1317  sender.weight */\n      0x00\n      add\n      mload\n        /* \"BallotV2.sol\":1269:1278  proposals */\n      0x02\n        /* \"BallotV2.sol\":1279:1289  toProposal */\n      dup5\n        /* \"BallotV2.sol\":1269:1290  proposals[toProposal] */\n      dup2\n      sload\n      dup2\n      lt\n      tag_35\n      jumpi\n      mstore(0x00, 0x4e487b7100000000000000000000000000000000000000000000000000000000)\n      mstore(0x04, 0x32)\n      revert(0x00, 0x24)\n    tag_35:\n      swap1\n      0x00\n      mstore\n      keccak256(0x00, 0x20)\n      add\n        /* \"BallotV2.sol\":1269:1300  proposals[toProposal].voteCount */\n      0x00\n      add\n      0x00\n        /* \"BallotV2.sol\":1269:1317  proposals[toProposal].voteCount += sender.weight */\n      dup3\n      dup3\n      sload\n      tag_37\n      swap2\n      swap1\n      tag_38\n      jump\t// in\n    tag_37:\n      swap3\n      pop\n      pop\n      dup2\n      swap1\n      sstore\n      pop\n        /* \"BallotV2.sol\":387:388  _ */\n      pop\n        /* \"BallotV2.sol\":1031:1322  function vote(uint toProposal) public validatePhase(Phase.Vote) {... */\n      pop\n      pop\n      jump\t// out\n        /* \"BallotV2.sol\":664:823  function changeState(Phase x) public {... */\n    tag_15:\n        /* \"BallotV2.sol\":724:735  chariperson */\n      0x00\n      dup1\n      sload\n      swap1\n      0x0100\n      exp\n      swap1\n      div\n      0xffffffffffffffffffffffffffffffffffffffff\n      and\n        /* \"BallotV2.sol\":710:735  msg.sender != chariperson */\n      0xffffffffffffffffffffffffffffffffffffffff\n      and\n        /* \"BallotV2.sol\":710:720  msg.sender */\n      caller\n        /* \"BallotV2.sol\":710:735  msg.sender != chariperson */\n      0xffffffffffffffffffffffffffffffffffffffff\n      and\n      eq\n        /* \"BallotV2.sol\":707:760  if(msg.sender != chariperson) {... */\n      tag_40\n      jumpi\n        /* \"BallotV2.sol\":745:753  revert() */\n      0x00\n      dup1\n      revert\n        /* \"BallotV2.sol\":707:760  if(msg.sender != chariperson) {... */\n    tag_40:\n        /* \"BallotV2.sol\":773:778  state */\n      0x03\n      0x00\n      swap1\n      sload\n      swap1\n      0x0100\n      exp\n      swap1\n      div\n      0xff\n      and\n        /* \"BallotV2.sol\":769:778  x < state */\n      0x03\n      dup2\n      gt\n      iszero\n      tag_41\n      jumpi\n      mstore(0x00, 0x4e487b7100000000000000000000000000000000000000000000000000000000)\n      mstore(0x04, 0x21)\n      revert(0x00, 0x24)\n    tag_41:\n        /* \"BallotV2.sol\":769:770  x */\n      dup2\n        /* \"BallotV2.sol\":769:778  x < state */\n      0x03\n      dup2\n      gt\n      iszero\n      tag_42\n      jumpi\n      mstore(0x00, 0x4e487b7100000000000000000000000000000000000000000000000000000000)\n      mstore(0x04, 0x21)\n      revert(0x00, 0x24)\n    tag_42:\n      lt\n        /* \"BallotV2.sol\":766:803  if(x < state) {... */\n      iszero\n      tag_43\n      jumpi\n        /* \"BallotV2.sol\":788:796  revert() */\n      0x00\n      dup1\n      revert\n        /* \"BallotV2.sol\":766:803  if(x < state) {... */\n    tag_43:\n        /* \"BallotV2.sol\":817:818  x */\n      dup1\n        /* \"BallotV2.sol\":809:814  state */\n      0x03\n      0x00\n        /* \"BallotV2.sol\":809:818  state = x */\n      0x0100\n      exp\n      dup2\n      sload\n      dup2\n      0xff\n      mul\n      not\n      and\n      swap1\n      dup4\n      0x03\n      dup2\n      gt\n      iszero\n      tag_44\n      jumpi\n      mstore(0x00, 0x4e487b7100000000000000000000000000000000000000000000000000000000)\n      mstore(0x04, 0x21)\n      revert(0x00, 0x24)\n    tag_44:\n      mul\n      or\n      swap1\n      sstore\n      pop\n        /* \"BallotV2.sol\":664:823  function changeState(Phase x) public {... */\n      pop\n      jump\t// out\n        /* \"BallotV2.sol\":827:1027  function register(address voter) public validatePhase(Phase.Regs) {... */\n    tag_19:\n        /* \"BallotV2.sol\":881:891  Phase.Regs */\n      0x01\n        /* \"BallotV2.sol\":379:380  p */\n      dup1\n        /* \"BallotV2.sol\":370:380  state == p */\n      0x03\n      dup2\n      gt\n      iszero\n      tag_46\n      jumpi\n      mstore(0x00, 0x4e487b7100000000000000000000000000000000000000000000000000000000)\n      mstore(0x04, 0x21)\n      revert(0x00, 0x24)\n    tag_46:\n        /* \"BallotV2.sol\":370:375  state */\n      0x03\n      0x00\n      swap1\n      sload\n      swap1\n      0x0100\n      exp\n      swap1\n      div\n      0xff\n      and\n        /* \"BallotV2.sol\":370:380  state == p */\n      0x03\n      dup2\n      gt\n      iszero\n      tag_47\n      jumpi\n      mstore(0x00, 0x4e487b7100000000000000000000000000000000000000000000000000000000)\n      mstore(0x04, 0x21)\n      revert(0x00, 0x24)\n    tag_47:\n      eq\n        /* \"BallotV2.sol\":362:381  require(state == p) */\n      tag_48\n      jumpi\n      0x00\n      dup1\n      revert\n    tag_48:\n        /* \"BallotV2.sol\":917:928  chariperson */\n      0x00\n      dup1\n      sload\n      swap1\n      0x0100\n      exp\n      swap1\n      div\n      0xffffffffffffffffffffffffffffffffffffffff\n      and\n        /* \"BallotV2.sol\":903:928  msg.sender != chariperson */\n      0xffffffffffffffffffffffffffffffffffffffff\n      and\n        /* \"BallotV2.sol\":903:913  msg.sender */\n      caller\n        /* \"BallotV2.sol\":903:928  msg.sender != chariperson */\n      0xffffffffffffffffffffffffffffffffffffffff\n      and\n      eq\n      iszero\n        /* \"BallotV2.sol\":903:951  msg.sender != chariperson || voters[voter].voted */\n      dup1\n      tag_50\n      jumpi\n      pop\n        /* \"BallotV2.sol\":932:938  voters */\n      0x01\n        /* \"BallotV2.sol\":932:945  voters[voter] */\n      0x00\n        /* \"BallotV2.sol\":939:944  voter */\n      dup4\n        /* \"BallotV2.sol\":932:945  voters[voter] */\n      0xffffffffffffffffffffffffffffffffffffffff\n      and\n      0xffffffffffffffffffffffffffffffffffffffff\n      and\n      dup2\n      mstore\n      0x20\n      add\n      swap1\n      dup2\n      mstore\n      0x20\n      add\n      0x00\n      keccak256\n        /* \"BallotV2.sol\":932:951  voters[voter].voted */\n      0x01\n      add\n      0x00\n      swap1\n      sload\n      swap1\n      0x0100\n      exp\n      swap1\n      div\n      0xff\n      and\n        /* \"BallotV2.sol\":903:951  msg.sender != chariperson || voters[voter].voted */\n    tag_50:\n        /* \"BallotV2.sol\":899:960  if (msg.sender != chariperson || voters[voter].voted) return; */\n      iszero\n      tag_51\n      jumpi\n        /* \"BallotV2.sol\":953:960  return; */\n      jump(tag_49)\n        /* \"BallotV2.sol\":899:960  if (msg.sender != chariperson || voters[voter].voted) return; */\n    tag_51:\n        /* \"BallotV2.sol\":988:989  1 */\n      0x01\n        /* \"BallotV2.sol\":965:971  voters */\n      dup1\n        /* \"BallotV2.sol\":965:978  voters[voter] */\n      0x00\n        /* \"BallotV2.sol\":972:977  voter */\n      dup5\n        /* \"BallotV2.sol\":965:978  voters[voter] */\n      0xffffffffffffffffffffffffffffffffffffffff\n      and\n      0xffffffffffffffffffffffffffffffffffffffff\n      and\n      dup2\n      mstore\n      0x20\n      add\n      swap1\n      dup2\n      mstore\n      0x20\n      add\n      0x00\n      keccak256\n        /* \"BallotV2.sol\":965:985  voters[voter].weight */\n      0x00\n      add\n        /* \"BallotV2.sol\":965:989  voters[voter].weight = 1 */\n      dup2\n      swap1\n      sstore\n      pop\n        /* \"BallotV2.sol\":1017:1022  false */\n      0x00\n        /* \"BallotV2.sol\":995:1001  voters */\n      0x01\n        /* \"BallotV2.sol\":995:1008  voters[voter] */\n      0x00\n        /* \"BallotV2.sol\":1002:1007  voter */\n      dup5\n        /* \"BallotV2.sol\":995:1008  voters[voter] */\n      0xffffffffffffffffffffffffffffffffffffffff\n      and\n      0xffffffffffffffffffffffffffffffffffffffff\n      and\n      dup2\n      mstore\n      0x20\n      add\n      swap1\n      dup2\n      mstore\n      0x20\n      add\n      0x00\n      keccak256\n        /* \"BallotV2.sol\":995:1014  voters[voter].voted */\n      0x01\n      add\n      0x00\n        /* \"BallotV2.sol\":995:1022  voters[voter].voted = false */\n      0x0100\n      exp\n      dup2\n      sload\n      dup2\n      0xff\n      mul\n      not\n      and\n      swap1\n      dup4\n      iszero\n      iszero\n      mul\n      or\n      swap1\n      sstore\n      pop\n        /* \"BallotV2.sol\":387:388  _ */\n    tag_49:\n        /* \"BallotV2.sol\":827:1027  function register(address voter) public validatePhase(Phase.Regs) {... */\n      pop\n      pop\n      jump\t// out\n        /* \"BallotV2.sol\":1326:1665  function reqWinner() public validatePhase(Phase.Done) view returns (uint winningProposal) {... */\n    tag_21:\n        /* \"BallotV2.sol\":1394:1414  uint winningProposal */\n      0x00\n        /* \"BallotV2.sol\":1368:1378  Phase.Done */\n      0x03\n        /* \"BallotV2.sol\":379:380  p */\n      dup1\n        /* \"BallotV2.sol\":370:380  state == p */\n      0x03\n      dup2\n      gt\n      iszero\n      tag_53\n      jumpi\n      mstore(0x00, 0x4e487b7100000000000000000000000000000000000000000000000000000000)\n      mstore(0x04, 0x21)\n      revert(0x00, 0x24)\n    tag_53:\n        /* \"BallotV2.sol\":370:375  state */\n      0x03\n      0x00\n      swap1\n      sload\n      swap1\n      0x0100\n      exp\n      swap1\n      div\n      0xff\n      and\n        /* \"BallotV2.sol\":370:380  state == p */\n      0x03\n      dup2\n      gt\n      iszero\n      tag_54\n      jumpi\n      mstore(0x00, 0x4e487b7100000000000000000000000000000000000000000000000000000000)\n      mstore(0x04, 0x21)\n      revert(0x00, 0x24)\n    tag_54:\n      eq\n        /* \"BallotV2.sol\":362:381  require(state == p) */\n      tag_55\n      jumpi\n      0x00\n      dup1\n      revert\n    tag_55:\n        /* \"BallotV2.sol\":1422:1443  uint winningVoteCount */\n      0x00\n        /* \"BallotV2.sol\":1458:1467  uint prop */\n      dup1\n        /* \"BallotV2.sol\":1453:1661  for (uint prop = 0; prop < proposals.length; prop++)... */\n    tag_57:\n        /* \"BallotV2.sol\":1480:1489  proposals */\n      0x02\n        /* \"BallotV2.sol\":1480:1496  proposals.length */\n      dup1\n      sload\n      swap1\n      pop\n        /* \"BallotV2.sol\":1473:1477  prop */\n      dup2\n        /* \"BallotV2.sol\":1473:1496  prop < proposals.length */\n      lt\n        /* \"BallotV2.sol\":1453:1661  for (uint prop = 0; prop < proposals.length; prop++)... */\n      iszero\n      tag_58\n      jumpi\n        /* \"BallotV2.sol\":1544:1560  winningVoteCount */\n      dup2\n        /* \"BallotV2.sol\":1516:1525  proposals */\n      0x02\n        /* \"BallotV2.sol\":1526:1530  prop */\n      dup3\n        /* \"BallotV2.sol\":1516:1531  proposals[prop] */\n      dup2\n      sload\n      dup2\n      lt\n      tag_60\n      jumpi\n      mstore(0x00, 0x4e487b7100000000000000000000000000000000000000000000000000000000)\n      mstore(0x04, 0x32)\n      revert(0x00, 0x24)\n    tag_60:\n      swap1\n      0x00\n      mstore\n      keccak256(0x00, 0x20)\n      add\n        /* \"BallotV2.sol\":1516:1541  proposals[prop].voteCount */\n      0x00\n      add\n      sload\n        /* \"BallotV2.sol\":1516:1560  proposals[prop].voteCount > winningVoteCount */\n      gt\n        /* \"BallotV2.sol\":1512:1661  if (proposals[prop].voteCount > winningVoteCount) {... */\n      iszero\n      tag_62\n      jumpi\n        /* \"BallotV2.sol\":1593:1602  proposals */\n      0x02\n        /* \"BallotV2.sol\":1603:1607  prop */\n      dup2\n        /* \"BallotV2.sol\":1593:1608  proposals[prop] */\n      dup2\n      sload\n      dup2\n      lt\n      tag_63\n      jumpi\n      mstore(0x00, 0x4e487b7100000000000000000000000000000000000000000000000000000000)\n      mstore(0x04, 0x32)\n      revert(0x00, 0x24)\n    tag_63:\n      swap1\n      0x00\n      mstore\n      keccak256(0x00, 0x20)\n      add\n        /* \"BallotV2.sol\":1593:1618  proposals[prop].voteCount */\n      0x00\n      add\n      sload\n        /* \"BallotV2.sol\":1574:1618  winningVoteCount = proposals[prop].voteCount */\n      swap2\n      pop\n        /* \"BallotV2.sol\":1648:1652  prop */\n      dup1\n        /* \"BallotV2.sol\":1630:1652  winningProposal = prop */\n      swap4\n      pop\n        /* \"BallotV2.sol\":1512:1661  if (proposals[prop].voteCount > winningVoteCount) {... */\n    tag_62:\n        /* \"BallotV2.sol\":1498:1504  prop++ */\n      dup1\n      dup1\n      tag_65\n      swap1\n      tag_66\n      jump\t// in\n    tag_65:\n      swap2\n      pop\n      pop\n        /* \"BallotV2.sol\":1453:1661  for (uint prop = 0; prop < proposals.length; prop++)... */\n      jump(tag_57)\n    tag_58:\n      pop\n        /* \"BallotV2.sol\":387:388  _ */\n      pop\n        /* \"BallotV2.sol\":1326:1665  function reqWinner() public validatePhase(Phase.Done) view returns (uint winningProposal) {... */\n      pop\n      swap1\n      jump\t// out\n        /* \"BallotV2.sol\":286:317  Phase public state = Phase.Init */\n    tag_25:\n      0x03\n      0x00\n      swap1\n      sload\n      swap1\n      0x0100\n      exp\n      swap1\n      div\n      0xff\n      and\n      dup2\n      jump\t// out\n        /* \"#utility.yul\":7:146   */\n    tag_68:\n      0x00\n        /* \"#utility.yul\":91:97   */\n      dup2\n        /* \"#utility.yul\":78:98   */\n      calldataload\n        /* \"#utility.yul\":69:98   */\n      swap1\n      pop\n        /* \"#utility.yul\":107:140   */\n      tag_70\n        /* \"#utility.yul\":134:139   */\n      dup2\n        /* \"#utility.yul\":107:140   */\n      tag_71\n      jump\t// in\n    tag_70:\n        /* \"#utility.yul\":59:146   */\n      swap3\n      swap2\n      pop\n      pop\n      jump\t// out\n        /* \"#utility.yul\":152:307   */\n    tag_72:\n      0x00\n        /* \"#utility.yul\":244:250   */\n      dup2\n        /* \"#utility.yul\":231:251   */\n      calldataload\n        /* \"#utility.yul\":222:251   */\n      swap1\n      pop\n        /* \"#utility.yul\":260:301   */\n      tag_74\n        /* \"#utility.yul\":295:300   */\n      dup2\n        /* \"#utility.yul\":260:301   */\n      tag_75\n      jump\t// in\n    tag_74:\n        /* \"#utility.yul\":212:307   */\n      swap3\n      swap2\n      pop\n      pop\n      jump\t// out\n        /* \"#utility.yul\":313:452   */\n    tag_76:\n      0x00\n        /* \"#utility.yul\":397:403   */\n      dup2\n        /* \"#utility.yul\":384:404   */\n      calldataload\n        /* \"#utility.yul\":375:404   */\n      swap1\n      pop\n        /* \"#utility.yul\":413:446   */\n      tag_78\n        /* \"#utility.yul\":440:445   */\n      dup2\n        /* \"#utility.yul\":413:446   */\n      tag_79\n      jump\t// in\n    tag_78:\n        /* \"#utility.yul\":365:452   */\n      swap3\n      swap2\n      pop\n      pop\n      jump\t// out\n        /* \"#utility.yul\":458:720   */\n    tag_18:\n      0x00\n        /* \"#utility.yul\":566:568   */\n      0x20\n        /* \"#utility.yul\":554:563   */\n      dup3\n        /* \"#utility.yul\":545:552   */\n      dup5\n        /* \"#utility.yul\":541:564   */\n      sub\n        /* \"#utility.yul\":537:569   */\n      slt\n        /* \"#utility.yul\":534:536   */\n      iszero\n      tag_81\n      jumpi\n        /* \"#utility.yul\":582:583   */\n      0x00\n        /* \"#utility.yul\":579:580   */\n      dup1\n        /* \"#utility.yul\":572:584   */\n      revert\n        /* \"#utility.yul\":534:536   */\n    tag_81:\n        /* \"#utility.yul\":625:626   */\n      0x00\n        /* \"#utility.yul\":650:703   */\n      tag_82\n        /* \"#utility.yul\":695:702   */\n      dup5\n        /* \"#utility.yul\":686:692   */\n      dup3\n        /* \"#utility.yul\":675:684   */\n      dup6\n        /* \"#utility.yul\":671:693   */\n      add\n        /* \"#utility.yul\":650:703   */\n      tag_68\n      jump\t// in\n    tag_82:\n        /* \"#utility.yul\":640:703   */\n      swap2\n      pop\n        /* \"#utility.yul\":596:713   */\n      pop\n        /* \"#utility.yul\":524:720   */\n      swap3\n      swap2\n      pop\n      pop\n      jump\t// out\n        /* \"#utility.yul\":726:1004   */\n    tag_14:\n      0x00\n        /* \"#utility.yul\":842:844   */\n      0x20\n        /* \"#utility.yul\":830:839   */\n      dup3\n        /* \"#utility.yul\":821:828   */\n      dup5\n        /* \"#utility.yul\":817:840   */\n      sub\n        /* \"#utility.yul\":813:845   */\n      slt\n        /* \"#utility.yul\":810:812   */\n      iszero\n      tag_84\n      jumpi\n        /* \"#utility.yul\":858:859   */\n      0x00\n        /* \"#utility.yul\":855:856   */\n      dup1\n        /* \"#utility.yul\":848:860   */\n      revert\n        /* \"#utility.yul\":810:812   */\n    tag_84:\n        /* \"#utility.yul\":901:902   */\n      0x00\n        /* \"#utility.yul\":926:987   */\n      tag_85\n        /* \"#utility.yul\":979:986   */\n      dup5\n        /* \"#utility.yul\":970:976   */\n      dup3\n        /* \"#utility.yul\":959:968   */\n      dup6\n        /* \"#utility.yul\":955:977   */\n      add\n        /* \"#utility.yul\":926:987   */\n      tag_72\n      jump\t// in\n    tag_85:\n        /* \"#utility.yul\":916:987   */\n      swap2\n      pop\n        /* \"#utility.yul\":872:997   */\n      pop\n        /* \"#utility.yul\":800:1004   */\n      swap3\n      swap2\n      pop\n      pop\n      jump\t// out\n        /* \"#utility.yul\":1010:1272   */\n    tag_10:\n      0x00\n        /* \"#utility.yul\":1118:1120   */\n      0x20\n        /* \"#utility.yul\":1106:1115   */\n      dup3\n        /* \"#utility.yul\":1097:1104   */\n      dup5\n        /* \"#utility.yul\":1093:1116   */\n      sub\n        /* \"#utility.yul\":1089:1121   */\n      slt\n        /* \"#utility.yul\":1086:1088   */\n      iszero\n      tag_87\n      jumpi\n        /* \"#utility.yul\":1134:1135   */\n      0x00\n        /* \"#utility.yul\":1131:1132   */\n      dup1\n        /* \"#utility.yul\":1124:1136   */\n      revert\n        /* \"#utility.yul\":1086:1088   */\n    tag_87:\n        /* \"#utility.yul\":1177:1178   */\n      0x00\n        /* \"#utility.yul\":1202:1255   */\n      tag_88\n        /* \"#utility.yul\":1247:1254   */\n      dup5\n        /* \"#utility.yul\":1238:1244   */\n      dup3\n        /* \"#utility.yul\":1227:1236   */\n      dup6\n        /* \"#utility.yul\":1223:1245   */\n      add\n        /* \"#utility.yul\":1202:1255   */\n      tag_76\n      jump\t// in\n    tag_88:\n        /* \"#utility.yul\":1192:1255   */\n      swap2\n      pop\n        /* \"#utility.yul\":1148:1265   */\n      pop\n        /* \"#utility.yul\":1076:1272   */\n      swap3\n      swap2\n      pop\n      pop\n      jump\t// out\n        /* \"#utility.yul\":1278:1421   */\n    tag_89:\n        /* \"#utility.yul\":1371:1414   */\n      tag_91\n        /* \"#utility.yul\":1408:1413   */\n      dup2\n        /* \"#utility.yul\":1371:1414   */\n      tag_92\n      jump\t// in\n    tag_91:\n        /* \"#utility.yul\":1366:1369   */\n      dup3\n        /* \"#utility.yul\":1359:1415   */\n      mstore\n        /* \"#utility.yul\":1349:1421   */\n      pop\n      pop\n      jump\t// out\n        /* \"#utility.yul\":1427:1545   */\n    tag_93:\n        /* \"#utility.yul\":1514:1538   */\n      tag_95\n        /* \"#utility.yul\":1532:1537   */\n      dup2\n        /* \"#utility.yul\":1514:1538   */\n      tag_96\n      jump\t// in\n    tag_95:\n        /* \"#utility.yul\":1509:1512   */\n      dup3\n        /* \"#utility.yul\":1502:1539   */\n      mstore\n        /* \"#utility.yul\":1492:1545   */\n      pop\n      pop\n      jump\t// out\n        /* \"#utility.yul\":1551:1785   */\n    tag_27:\n      0x00\n        /* \"#utility.yul\":1688:1690   */\n      0x20\n        /* \"#utility.yul\":1677:1686   */\n      dup3\n        /* \"#utility.yul\":1673:1691   */\n      add\n        /* \"#utility.yul\":1665:1691   */\n      swap1\n      pop\n        /* \"#utility.yul\":1701:1778   */\n      tag_98\n        /* \"#utility.yul\":1775:1776   */\n      0x00\n        /* \"#utility.yul\":1764:1773   */\n      dup4\n        /* \"#utility.yul\":1760:1777   */\n      add\n        /* \"#utility.yul\":1751:1757   */\n      dup5\n        /* \"#utility.yul\":1701:1778   */\n      tag_89\n      jump\t// in\n    tag_98:\n        /* \"#utility.yul\":1655:1785   */\n      swap3\n      swap2\n      pop\n      pop\n      jump\t// out\n        /* \"#utility.yul\":1791:2013   */\n    tag_23:\n      0x00\n        /* \"#utility.yul\":1922:1924   */\n      0x20\n        /* \"#utility.yul\":1911:1920   */\n      dup3\n        /* \"#utility.yul\":1907:1925   */\n      add\n        /* \"#utility.yul\":1899:1925   */\n      swap1\n      pop\n        /* \"#utility.yul\":1935:2006   */\n      tag_100\n        /* \"#utility.yul\":2003:2004   */\n      0x00\n        /* \"#utility.yul\":1992:2001   */\n      dup4\n        /* \"#utility.yul\":1988:2005   */\n      add\n        /* \"#utility.yul\":1979:1985   */\n      dup5\n        /* \"#utility.yul\":1935:2006   */\n      tag_93\n      jump\t// in\n    tag_100:\n        /* \"#utility.yul\":1889:2013   */\n      swap3\n      swap2\n      pop\n      pop\n      jump\t// out\n        /* \"#utility.yul\":2019:2324   */\n    tag_38:\n      0x00\n        /* \"#utility.yul\":2078:2098   */\n      tag_102\n        /* \"#utility.yul\":2096:2097   */\n      dup3\n        /* \"#utility.yul\":2078:2098   */\n      tag_96\n      jump\t// in\n    tag_102:\n        /* \"#utility.yul\":2073:2098   */\n      swap2\n      pop\n        /* \"#utility.yul\":2112:2132   */\n      tag_103\n        /* \"#utility.yul\":2130:2131   */\n      dup4\n        /* \"#utility.yul\":2112:2132   */\n      tag_96\n      jump\t// in\n    tag_103:\n        /* \"#utility.yul\":2107:2132   */\n      swap3\n      pop\n        /* \"#utility.yul\":2266:2267   */\n      dup3\n        /* \"#utility.yul\":2198:2264   */\n      0xffffffffffffffffffffffffffffffffffffffffffffffffffffffffffffffff\n        /* \"#utility.yul\":2194:2268   */\n      sub\n        /* \"#utility.yul\":2191:2192   */\n      dup3\n        /* \"#utility.yul\":2188:2269   */\n      gt\n        /* \"#utility.yul\":2185:2187   */\n      iszero\n      tag_104\n      jumpi\n        /* \"#utility.yul\":2272:2290   */\n      tag_105\n      tag_106\n      jump\t// in\n    tag_105:\n        /* \"#utility.yul\":2185:2187   */\n    tag_104:\n        /* \"#utility.yul\":2316:2317   */\n      dup3\n        /* \"#utility.yul\":2313:2314   */\n      dup3\n        /* \"#utility.yul\":2309:2318   */\n      add\n        /* \"#utility.yul\":2302:2318   */\n      swap1\n      pop\n        /* \"#utility.yul\":2063:2324   */\n      swap3\n      swap2\n      pop\n      pop\n      jump\t// out\n        /* \"#utility.yul\":2330:2426   */\n    tag_107:\n      0x00\n        /* \"#utility.yul\":2396:2420   */\n      tag_109\n        /* \"#utility.yul\":2414:2419   */\n      dup3\n        /* \"#utility.yul\":2396:2420   */\n      tag_110\n      jump\t// in\n    tag_109:\n        /* \"#utility.yul\":2385:2420   */\n      swap1\n      pop\n        /* \"#utility.yul\":2375:2426   */\n      swap2\n      swap1\n      pop\n      jump\t// out\n        /* \"#utility.yul\":2432:2559   */\n    tag_111:\n      0x00\n        /* \"#utility.yul\":2506:2511   */\n      dup2\n        /* \"#utility.yul\":2495:2511   */\n      swap1\n      pop\n        /* \"#utility.yul\":2512:2553   */\n      tag_113\n        /* \"#utility.yul\":2547:2552   */\n      dup3\n        /* \"#utility.yul\":2512:2553   */\n      tag_114\n      jump\t// in\n    tag_113:\n        /* \"#utility.yul\":2485:2559   */\n      swap2\n      swap1\n      pop\n      jump\t// out\n        /* \"#utility.yul\":2565:2691   */\n    tag_110:\n      0x00\n        /* \"#utility.yul\":2642:2684   */\n      0xffffffffffffffffffffffffffffffffffffffff\n        /* \"#utility.yul\":2635:2640   */\n      dup3\n        /* \"#utility.yul\":2631:2685   */\n      and\n        /* \"#utility.yul\":2620:2685   */\n      swap1\n      pop\n        /* \"#utility.yul\":2610:2691   */\n      swap2\n      swap1\n      pop\n      jump\t// out\n        /* \"#utility.yul\":2697:2774   */\n    tag_96:\n      0x00\n        /* \"#utility.yul\":2763:2768   */\n      dup2\n        /* \"#utility.yul\":2752:2768   */\n      swap1\n      pop\n        /* \"#utility.yul\":2742:2774   */\n      swap2\n      swap1\n      pop\n      jump\t// out\n        /* \"#utility.yul\":2780:2907   */\n    tag_92:\n      0x00\n        /* \"#utility.yul\":2869:2901   */\n      tag_118\n        /* \"#utility.yul\":2895:2900   */\n      dup3\n        /* \"#utility.yul\":2869:2901   */\n      tag_111\n      jump\t// in\n    tag_118:\n        /* \"#utility.yul\":2856:2901   */\n      swap1\n      pop\n        /* \"#utility.yul\":2846:2907   */\n      swap2\n      swap1\n      pop\n      jump\t// out\n        /* \"#utility.yul\":2913:3146   */\n    tag_66:\n      0x00\n        /* \"#utility.yul\":2975:2999   */\n      tag_120\n        /* \"#utility.yul\":2993:2998   */\n      dup3\n        /* \"#utility.yul\":2975:2999   */\n      tag_96\n      jump\t// in\n    tag_120:\n        /* \"#utility.yul\":2966:2999   */\n      swap2\n      pop\n        /* \"#utility.yul\":3021:3087   */\n      0xffffffffffffffffffffffffffffffffffffffffffffffffffffffffffffffff\n        /* \"#utility.yul\":3014:3019   */\n      dup3\n        /* \"#utility.yul\":3011:3088   */\n      eq\n        /* \"#utility.yul\":3008:3010   */\n      iszero\n      tag_121\n      jumpi\n        /* \"#utility.yul\":3091:3109   */\n      tag_122\n      tag_106\n      jump\t// in\n    tag_122:\n        /* \"#utility.yul\":3008:3010   */\n    tag_121:\n        /* \"#utility.yul\":3138:3139   */\n      0x01\n        /* \"#utility.yul\":3131:3136   */\n      dup3\n        /* \"#utility.yul\":3127:3140   */\n      add\n        /* \"#utility.yul\":3120:3140   */\n      swap1\n      pop\n        /* \"#utility.yul\":2956:3146   */\n      swap2\n      swap1\n      pop\n      jump\t// out\n        /* \"#utility.yul\":3152:3332   */\n    tag_106:\n        /* \"#utility.yul\":3200:3277   */\n      0x4e487b7100000000000000000000000000000000000000000000000000000000\n        /* \"#utility.yul\":3197:3198   */\n      0x00\n        /* \"#utility.yul\":3190:3278   */\n      mstore\n        /* \"#utility.yul\":3297:3301   */\n      0x11\n        /* \"#utility.yul\":3294:3295   */\n      0x04\n        /* \"#utility.yul\":3287:3302   */\n      mstore\n        /* \"#utility.yul\":3321:3325   */\n      0x24\n        /* \"#utility.yul\":3318:3319   */\n      0x00\n        /* \"#utility.yul\":3311:3326   */\n      revert\n        /* \"#utility.yul\":3338:3518   */\n    tag_124:\n        /* \"#utility.yul\":3386:3463   */\n      0x4e487b7100000000000000000000000000000000000000000000000000000000\n        /* \"#utility.yul\":3383:3384   */\n      0x00\n        /* \"#utility.yul\":3376:3464   */\n      mstore\n        /* \"#utility.yul\":3483:3487   */\n      0x21\n        /* \"#utility.yul\":3480:3481   */\n      0x04\n        /* \"#utility.yul\":3473:3488   */\n      mstore\n        /* \"#utility.yul\":3507:3511   */\n      0x24\n        /* \"#utility.yul\":3504:3505   */\n      0x00\n        /* \"#utility.yul\":3497:3512   */\n      revert\n        /* \"#utility.yul\":3524:3637   */\n    tag_114:\n        /* \"#utility.yul\":3605:3606   */\n      0x04\n        /* \"#utility.yul\":3598:3603   */\n      dup2\n        /* \"#utility.yul\":3595:3607   */\n      lt\n        /* \"#utility.yul\":3585:3587   */\n      tag_127\n      jumpi\n        /* \"#utility.yul\":3611:3629   */\n      tag_128\n      tag_124\n      jump\t// in\n    tag_128:\n        /* \"#utility.yul\":3585:3587   */\n    tag_127:\n        /* \"#utility.yul\":3575:3637   */\n      pop\n      jump\t// out\n        /* \"#utility.yul\":3643:3765   */\n    tag_71:\n        /* \"#utility.yul\":3716:3740   */\n      tag_130\n        /* \"#utility.yul\":3734:3739   */\n      dup2\n        /* \"#utility.yul\":3716:3740   */\n      tag_107\n      jump\t// in\n    tag_130:\n        /* \"#utility.yul\":3709:3714   */\n      dup2\n        /* \"#utility.yul\":3706:3741   */\n      eq\n        /* \"#utility.yul\":3696:3698   */\n      tag_131\n      jumpi\n        /* \"#utility.yul\":3755:3756   */\n      0x00\n        /* \"#utility.yul\":3752:3753   */\n      dup1\n        /* \"#utility.yul\":3745:3757   */\n      revert\n        /* \"#utility.yul\":3696:3698   */\n    tag_131:\n        /* \"#utility.yul\":3686:3765   */\n      pop\n      jump\t// out\n        /* \"#utility.yul\":3771:3878   */\n    tag_75:\n        /* \"#utility.yul\":3852:3853   */\n      0x04\n        /* \"#utility.yul\":3845:3850   */\n      dup2\n        /* \"#utility.yul\":3842:3854   */\n      lt\n        /* \"#utility.yul\":3832:3834   */\n      tag_133\n      jumpi\n        /* \"#utility.yul\":3868:3869   */\n      0x00\n        /* \"#utility.yul\":3865:3866   */\n      dup1\n        /* \"#utility.yul\":3858:3870   */\n      revert\n        /* \"#utility.yul\":3832:3834   */\n    tag_133:\n        /* \"#utility.yul\":3822:3878   */\n      pop\n      jump\t// out\n        /* \"#utility.yul\":3884:4006   */\n    tag_79:\n        /* \"#utility.yul\":3957:3981   */\n      tag_135\n        /* \"#utility.yul\":3975:3980   */\n      dup2\n        /* \"#utility.yul\":3957:3981   */\n      tag_96\n      jump\t// in\n    tag_135:\n        /* \"#utility.yul\":3950:3955   */\n      dup2\n        /* \"#utility.yul\":3947:3982   */\n      eq\n        /* \"#utility.yul\":3937:3939   */\n      tag_136\n      jumpi\n        /* \"#utility.yul\":3996:3997   */\n      0x00\n        /* \"#utility.yul\":3993:3994   */\n      dup1\n        /* \"#utility.yul\":3986:3998   */\n      revert\n        /* \"#utility.yul\":3937:3939   */\n    tag_136:\n        /* \"#utility.yul\":3927:4006   */\n      pop\n      jump\t// out\n\n    auxdata: 0xa2646970667358221220e9ebbaa8448a9e847b5ac02b540db3ff0a5eb8a04b3da4e3f4ec63243fbd6bce64736f6c63430008000033\n}\n",
				"bytecode": {
					"linkReferences": {},
					"object": "60806040526000600360006101000a81548160ff02191690836003811115610050577f4e487b7100000000000000000000000000000000000000000000000000000000600052602160045260246000fd5b021790555034801561006157600080fd5b50604051610c89380380610c89833981810160405281019061008391906101a9565b336000806101000a81548173ffffffffffffffffffffffffffffffffffffffff021916908373ffffffffffffffffffffffffffffffffffffffff1602179055506002600160008060009054906101000a900473ffffffffffffffffffffffffffffffffffffffff1673ffffffffffffffffffffffffffffffffffffffff1673ffffffffffffffffffffffffffffffffffffffff1681526020019081526020016000206000018190555060005b8181101561018d57600260405180602001604052806000815250908060018154018082558091505060019003906000526020600020016000909190919091506000820151816000015550508080610185906101dc565b91505061012f565b505061026b565b6000815190506101a381610254565b92915050565b6000602082840312156101bb57600080fd5b60006101c984828501610194565b91505092915050565b6000819050919050565b60006101e7826101d2565b91507fffffffffffffffffffffffffffffffffffffffffffffffffffffffffffffffff82141561021a57610219610225565b5b600182019050919050565b7f4e487b7100000000000000000000000000000000000000000000000000000000600052601160045260246000fd5b61025d816101d2565b811461026857600080fd5b50565b610a0f8061027a6000396000f3fe608060405234801561001057600080fd5b50600436106100575760003560e01c80630121b93f1461005c578063268f1153146100785780634420e48614610094578063508b30c9146100b0578063c19d93fb146100ce575b600080fd5b610076600480360381019061007191906107ac565b6100ec565b005b610092600480360381019061008d9190610783565b610296565b005b6100ae60048036038101906100a9919061075a565b6103cd565b005b6100b86105b2565b6040516100c5919061080e565b60405180910390f35b6100d6610708565b6040516100e391906107f3565b60405180910390f35b6002806003811115610127577f4e487b7100000000000000000000000000000000000000000000000000000000600052602160045260246000fd5b600360009054906101000a900460ff16600381111561016f577f4e487b7100000000000000000000000000000000000000000000000000000000600052602160045260246000fd5b1461017957600080fd5b6000600160003373ffffffffffffffffffffffffffffffffffffffff1673ffffffffffffffffffffffffffffffffffffffff168152602001908152602001600020604051806060016040529081600082015481526020016001820160009054906101000a900460ff16151515158152602001600282015481525050905080602001518061020a575060028054905083115b1561021457600080fd5b60018160200190151590811515815250508281604001818152505080600001516002848154811061026e577f4e487b7100000000000000000000000000000000000000000000000000000000600052603260045260246000fd5b90600052602060002001600001600082825461028a9190610829565b92505081905550505050565b60008054906101000a900473ffffffffffffffffffffffffffffffffffffffff1673ffffffffffffffffffffffffffffffffffffffff163373ffffffffffffffffffffffffffffffffffffffff16146102ee57600080fd5b600360009054906101000a900460ff166003811115610336577f4e487b7100000000000000000000000000000000000000000000000000000000600052602160045260246000fd5b81600381111561036f577f4e487b7100000000000000000000000000000000000000000000000000000000600052602160045260246000fd5b101561037a57600080fd5b80600360006101000a81548160ff021916908360038111156103c5577f4e487b7100000000000000000000000000000000000000000000000000000000600052602160045260246000fd5b021790555050565b6001806003811115610408577f4e487b7100000000000000000000000000000000000000000000000000000000600052602160045260246000fd5b600360009054906101000a900460ff166003811115610450577f4e487b7100000000000000000000000000000000000000000000000000000000600052602160045260246000fd5b1461045a57600080fd5b60008054906101000a900473ffffffffffffffffffffffffffffffffffffffff1673ffffffffffffffffffffffffffffffffffffffff163373ffffffffffffffffffffffffffffffffffffffff161415806105015750600160008373ffffffffffffffffffffffffffffffffffffffff1673ffffffffffffffffffffffffffffffffffffffff16815260200190815260200160002060010160009054906101000a900460ff165b1561050b576105ae565b60018060008473ffffffffffffffffffffffffffffffffffffffff1673ffffffffffffffffffffffffffffffffffffffff168152602001908152602001600020600001819055506000600160008473ffffffffffffffffffffffffffffffffffffffff1673ffffffffffffffffffffffffffffffffffffffff16815260200190815260200160002060010160006101000a81548160ff0219169083151502179055505b5050565b600060038060038111156105ef577f4e487b7100000000000000000000000000000000000000000000000000000000600052602160045260246000fd5b600360009054906101000a900460ff166003811115610637577f4e487b7100000000000000000000000000000000000000000000000000000000600052602160045260246000fd5b1461064157600080fd5b6000805b60028054905081101561070257816002828154811061068d577f4e487b7100000000000000000000000000000000000000000000000000000000600052603260045260246000fd5b906000526020600020016000015411156106ef57600281815481106106db577f4e487b7100000000000000000000000000000000000000000000000000000000600052603260045260246000fd5b906000526020600020016000015491508093505b80806106fa906108e0565b915050610645565b50505090565b600360009054906101000a900460ff1681565b60008135905061072a8161099b565b92915050565b60008135905061073f816109b2565b92915050565b600081359050610754816109c2565b92915050565b60006020828403121561076c57600080fd5b600061077a8482850161071b565b91505092915050565b60006020828403121561079557600080fd5b60006107a384828501610730565b91505092915050565b6000602082840312156107be57600080fd5b60006107cc84828501610745565b91505092915050565b6107de816108ce565b82525050565b6107ed816108c4565b82525050565b600060208201905061080860008301846107d5565b92915050565b600060208201905061082360008301846107e4565b92915050565b6000610834826108c4565b915061083f836108c4565b9250827fffffffffffffffffffffffffffffffffffffffffffffffffffffffffffffffff0382111561087457610873610929565b5b828201905092915050565b600061088a826108a4565b9050919050565b600081905061089f82610987565b919050565b600073ffffffffffffffffffffffffffffffffffffffff82169050919050565b6000819050919050565b60006108d982610891565b9050919050565b60006108eb826108c4565b91507fffffffffffffffffffffffffffffffffffffffffffffffffffffffffffffffff82141561091e5761091d610929565b5b600182019050919050565b7f4e487b7100000000000000000000000000000000000000000000000000000000600052601160045260246000fd5b7f4e487b7100000000000000000000000000000000000000000000000000000000600052602160045260246000fd5b6004811061099857610997610958565b5b50565b6109a48161087f565b81146109af57600080fd5b50565b600481106109bf57600080fd5b50565b6109cb816108c4565b81146109d657600080fd5b5056fea2646970667358221220e9ebbaa8448a9e847b5ac02b540db3ff0a5eb8a04b3da4e3f4ec63243fbd6bce64736f6c63430008000033",
					"opcodes": "PUSH1 0x80 PUSH1 0x40 MSTORE PUSH1 0x0 PUSH1 0x3 PUSH1 0x0 PUSH2 0x100 EXP DUP2 SLOAD DUP2 PUSH1 0xFF MUL NOT AND SWAP1 DUP4 PUSH1 0x3 DUP2 GT ISZERO PUSH2 0x50 JUMPI PUSH32 0x4E487B7100000000000000000000000000000000000000000000000000000000 PUSH1 0x0 MSTORE PUSH1 0x21 PUSH1 0x4 MSTORE PUSH1 0x24 PUSH1 0x0 REVERT JUMPDEST MUL OR SWAP1 SSTORE POP CALLVALUE DUP1 ISZERO PUSH2 0x61 JUMPI PUSH1 0x0 DUP1 REVERT JUMPDEST POP PUSH1 0x40 MLOAD PUSH2 0xC89 CODESIZE SUB DUP1 PUSH2 0xC89 DUP4 CODECOPY DUP2 DUP2 ADD PUSH1 0x40 MSTORE DUP2 ADD SWAP1 PUSH2 0x83 SWAP2 SWAP1 PUSH2 0x1A9 JUMP JUMPDEST CALLER PUSH1 0x0 DUP1 PUSH2 0x100 EXP DUP2 SLOAD DUP2 PUSH20 0xFFFFFFFFFFFFFFFFFFFFFFFFFFFFFFFFFFFFFFFF MUL NOT AND SWAP1 DUP4 PUSH20 0xFFFFFFFFFFFFFFFFFFFFFFFFFFFFFFFFFFFFFFFF AND MUL OR SWAP1 SSTORE POP PUSH1 0x2 PUSH1 0x1 PUSH1 0x0 DUP1 PUSH1 0x0 SWAP1 SLOAD SWAP1 PUSH2 0x100 EXP SWAP1 DIV PUSH20 0xFFFFFFFFFFFFFFFFFFFFFFFFFFFFFFFFFFFFFFFF AND PUSH20 0xFFFFFFFFFFFFFFFFFFFFFFFFFFFFFFFFFFFFFFFF AND PUSH20 0xFFFFFFFFFFFFFFFFFFFFFFFFFFFFFFFFFFFFFFFF AND DUP2 MSTORE PUSH1 0x20 ADD SWAP1 DUP2 MSTORE PUSH1 0x20 ADD PUSH1 0x0 KECCAK256 PUSH1 0x0 ADD DUP2 SWAP1 SSTORE POP PUSH1 0x0 JUMPDEST DUP2 DUP2 LT ISZERO PUSH2 0x18D JUMPI PUSH1 0x2 PUSH1 0x40 MLOAD DUP1 PUSH1 0x20 ADD PUSH1 0x40 MSTORE DUP1 PUSH1 0x0 DUP2 MSTORE POP SWAP1 DUP1 PUSH1 0x1 DUP2 SLOAD ADD DUP1 DUP3 SSTORE DUP1 SWAP2 POP POP PUSH1 0x1 SWAP1 SUB SWAP1 PUSH1 0x0 MSTORE PUSH1 0x20 PUSH1 0x0 KECCAK256 ADD PUSH1 0x0 SWAP1 SWAP2 SWAP1 SWAP2 SWAP1 SWAP2 POP PUSH1 0x0 DUP3 ADD MLOAD DUP2 PUSH1 0x0 ADD SSTORE POP POP DUP1 DUP1 PUSH2 0x185 SWAP1 PUSH2 0x1DC JUMP JUMPDEST SWAP2 POP POP PUSH2 0x12F JUMP JUMPDEST POP POP PUSH2 0x26B JUMP JUMPDEST PUSH1 0x0 DUP2 MLOAD SWAP1 POP PUSH2 0x1A3 DUP2 PUSH2 0x254 JUMP JUMPDEST SWAP3 SWAP2 POP POP JUMP JUMPDEST PUSH1 0x0 PUSH1 0x20 DUP3 DUP5 SUB SLT ISZERO PUSH2 0x1BB JUMPI PUSH1 0x0 DUP1 REVERT JUMPDEST PUSH1 0x0 PUSH2 0x1C9 DUP5 DUP3 DUP6 ADD PUSH2 0x194 JUMP JUMPDEST SWAP2 POP POP SWAP3 SWAP2 POP POP JUMP JUMPDEST PUSH1 0x0 DUP2 SWAP1 POP SWAP2 SWAP1 POP JUMP JUMPDEST PUSH1 0x0 PUSH2 0x1E7 DUP3 PUSH2 0x1D2 JUMP JUMPDEST SWAP2 POP PUSH32 0xFFFFFFFFFFFFFFFFFFFFFFFFFFFFFFFFFFFFFFFFFFFFFFFFFFFFFFFFFFFFFFFF DUP3 EQ ISZERO PUSH2 0x21A JUMPI PUSH2 0x219 PUSH2 0x225 JUMP JUMPDEST JUMPDEST PUSH1 0x1 DUP3 ADD SWAP1 POP SWAP2 SWAP1 POP JUMP JUMPDEST PUSH32 0x4E487B7100000000000000000000000000000000000000000000000000000000 PUSH1 0x0 MSTORE PUSH1 0x11 PUSH1 0x4 MSTORE PUSH1 0x24 PUSH1 0x0 REVERT JUMPDEST PUSH2 0x25D DUP2 PUSH2 0x1D2 JUMP JUMPDEST DUP2 EQ PUSH2 0x268 JUMPI PUSH1 0x0 DUP1 REVERT JUMPDEST POP JUMP JUMPDEST PUSH2 0xA0F DUP1 PUSH2 0x27A PUSH1 0x0 CODECOPY PUSH1 0x0 RETURN INVALID PUSH1 0x80 PUSH1 0x40 MSTORE CALLVALUE DUP1 ISZERO PUSH2 0x10 JUMPI PUSH1 0x0 DUP1 REVERT JUMPDEST POP PUSH1 0x4 CALLDATASIZE LT PUSH2 0x57 JUMPI PUSH1 0x0 CALLDATALOAD PUSH1 0xE0 SHR DUP1 PUSH4 0x121B93F EQ PUSH2 0x5C JUMPI DUP1 PUSH4 0x268F1153 EQ PUSH2 0x78 JUMPI DUP1 PUSH4 0x4420E486 EQ PUSH2 0x94 JUMPI DUP1 PUSH4 0x508B30C9 EQ PUSH2 0xB0 JUMPI DUP1 PUSH4 0xC19D93FB EQ PUSH2 0xCE JUMPI JUMPDEST PUSH1 0x0 DUP1 REVERT JUMPDEST PUSH2 0x76 PUSH1 0x4 DUP1 CALLDATASIZE SUB DUP2 ADD SWAP1 PUSH2 0x71 SWAP2 SWAP1 PUSH2 0x7AC JUMP JUMPDEST PUSH2 0xEC JUMP JUMPDEST STOP JUMPDEST PUSH2 0x92 PUSH1 0x4 DUP1 CALLDATASIZE SUB DUP2 ADD SWAP1 PUSH2 0x8D SWAP2 SWAP1 PUSH2 0x783 JUMP JUMPDEST PUSH2 0x296 JUMP JUMPDEST STOP JUMPDEST PUSH2 0xAE PUSH1 0x4 DUP1 CALLDATASIZE SUB DUP2 ADD SWAP1 PUSH2 0xA9 SWAP2 SWAP1 PUSH2 0x75A JUMP JUMPDEST PUSH2 0x3CD JUMP JUMPDEST STOP JUMPDEST PUSH2 0xB8 PUSH2 0x5B2 JUMP JUMPDEST PUSH1 0x40 MLOAD PUSH2 0xC5 SWAP2 SWAP1 PUSH2 0x80E JUMP JUMPDEST PUSH1 0x40 MLOAD DUP1 SWAP2 SUB SWAP1 RETURN JUMPDEST PUSH2 0xD6 PUSH2 0x708 JUMP JUMPDEST PUSH1 0x40 MLOAD PUSH2 0xE3 SWAP2 SWAP1 PUSH2 0x7F3 JUMP JUMPDEST PUSH1 0x40 MLOAD DUP1 SWAP2 SUB SWAP1 RETURN JUMPDEST PUSH1 0x2 DUP1 PUSH1 0x3 DUP2 GT ISZERO PUSH2 0x127 JUMPI PUSH32 0x4E487B7100000000000000000000000000000000000000000000000000000000 PUSH1 0x0 MSTORE PUSH1 0x21 PUSH1 0x4 MSTORE PUSH1 0x24 PUSH1 0x0 REVERT JUMPDEST PUSH1 0x3 PUSH1 0x0 SWAP1 SLOAD SWAP1 PUSH2 0x100 EXP SWAP1 DIV PUSH1 0xFF AND PUSH1 0x3 DUP2 GT ISZERO PUSH2 0x16F JUMPI PUSH32 0x4E487B7100000000000000000000000000000000000000000000000000000000 PUSH1 0x0 MSTORE PUSH1 0x21 PUSH1 0x4 MSTORE PUSH1 0x24 PUSH1 0x0 REVERT JUMPDEST EQ PUSH2 0x179 JUMPI PUSH1 0x0 DUP1 REVERT JUMPDEST PUSH1 0x0 PUSH1 0x1 PUSH1 0x0 CALLER PUSH20 0xFFFFFFFFFFFFFFFFFFFFFFFFFFFFFFFFFFFFFFFF AND PUSH20 0xFFFFFFFFFFFFFFFFFFFFFFFFFFFFFFFFFFFFFFFF AND DUP2 MSTORE PUSH1 0x20 ADD SWAP1 DUP2 MSTORE PUSH1 0x20 ADD PUSH1 0x0 KECCAK256 PUSH1 0x40 MLOAD DUP1 PUSH1 0x60 ADD PUSH1 0x40 MSTORE SWAP1 DUP2 PUSH1 0x0 DUP3 ADD SLOAD DUP2 MSTORE PUSH1 0x20 ADD PUSH1 0x1 DUP3 ADD PUSH1 0x0 SWAP1 SLOAD SWAP1 PUSH2 0x100 EXP SWAP1 DIV PUSH1 0xFF AND ISZERO ISZERO ISZERO ISZERO DUP2 MSTORE PUSH1 0x20 ADD PUSH1 0x2 DUP3 ADD SLOAD DUP2 MSTORE POP POP SWAP1 POP DUP1 PUSH1 0x20 ADD MLOAD DUP1 PUSH2 0x20A JUMPI POP PUSH1 0x2 DUP1 SLOAD SWAP1 POP DUP4 GT JUMPDEST ISZERO PUSH2 0x214 JUMPI PUSH1 0x0 DUP1 REVERT JUMPDEST PUSH1 0x1 DUP2 PUSH1 0x20 ADD SWAP1 ISZERO ISZERO SWAP1 DUP2 ISZERO ISZERO DUP2 MSTORE POP POP DUP3 DUP2 PUSH1 0x40 ADD DUP2 DUP2 MSTORE POP POP DUP1 PUSH1 0x0 ADD MLOAD PUSH1 0x2 DUP5 DUP2 SLOAD DUP2 LT PUSH2 0x26E JUMPI PUSH32 0x4E487B7100000000000000000000000000000000000000000000000000000000 PUSH1 0x0 MSTORE PUSH1 0x32 PUSH1 0x4 MSTORE PUSH1 0x24 PUSH1 0x0 REVERT JUMPDEST SWAP1 PUSH1 0x0 MSTORE PUSH1 0x20 PUSH1 0x0 KECCAK256 ADD PUSH1 0x0 ADD PUSH1 0x0 DUP3 DUP3 SLOAD PUSH2 0x28A SWAP2 SWAP1 PUSH2 0x829 JUMP JUMPDEST SWAP3 POP POP DUP2 SWAP1 SSTORE POP POP POP POP JUMP JUMPDEST PUSH1 0x0 DUP1 SLOAD SWAP1 PUSH2 0x100 EXP SWAP1 DIV PUSH20 0xFFFFFFFFFFFFFFFFFFFFFFFFFFFFFFFFFFFFFFFF AND PUSH20 0xFFFFFFFFFFFFFFFFFFFFFFFFFFFFFFFFFFFFFFFF AND CALLER PUSH20 0xFFFFFFFFFFFFFFFFFFFFFFFFFFFFFFFFFFFFFFFF AND EQ PUSH2 0x2EE JUMPI PUSH1 0x0 DUP1 REVERT JUMPDEST PUSH1 0x3 PUSH1 0x0 SWAP1 SLOAD SWAP1 PUSH2 0x100 EXP SWAP1 DIV PUSH1 0xFF AND PUSH1 0x3 DUP2 GT ISZERO PUSH2 0x336 JUMPI PUSH32 0x4E487B7100000000000000000000000000000000000000000000000000000000 PUSH1 0x0 MSTORE PUSH1 0x21 PUSH1 0x4 MSTORE PUSH1 0x24 PUSH1 0x0 REVERT JUMPDEST DUP2 PUSH1 0x3 DUP2 GT ISZERO PUSH2 0x36F JUMPI PUSH32 0x4E487B7100000000000000000000000000000000000000000000000000000000 PUSH1 0x0 MSTORE PUSH1 0x21 PUSH1 0x4 MSTORE PUSH1 0x24 PUSH1 0x0 REVERT JUMPDEST LT ISZERO PUSH2 0x37A JUMPI PUSH1 0x0 DUP1 REVERT JUMPDEST DUP1 PUSH1 0x3 PUSH1 0x0 PUSH2 0x100 EXP DUP2 SLOAD DUP2 PUSH1 0xFF MUL NOT AND SWAP1 DUP4 PUSH1 0x3 DUP2 GT ISZERO PUSH2 0x3C5 JUMPI PUSH32 0x4E487B7100000000000000000000000000000000000000000000000000000000 PUSH1 0x0 MSTORE PUSH1 0x21 PUSH1 0x4 MSTORE PUSH1 0x24 PUSH1 0x0 REVERT JUMPDEST MUL OR SWAP1 SSTORE POP POP JUMP JUMPDEST PUSH1 0x1 DUP1 PUSH1 0x3 DUP2 GT ISZERO PUSH2 0x408 JUMPI PUSH32 0x4E487B7100000000000000000000000000000000000000000000000000000000 PUSH1 0x0 MSTORE PUSH1 0x21 PUSH1 0x4 MSTORE PUSH1 0x24 PUSH1 0x0 REVERT JUMPDEST PUSH1 0x3 PUSH1 0x0 SWAP1 SLOAD SWAP1 PUSH2 0x100 EXP SWAP1 DIV PUSH1 0xFF AND PUSH1 0x3 DUP2 GT ISZERO PUSH2 0x450 JUMPI PUSH32 0x4E487B7100000000000000000000000000000000000000000000000000000000 PUSH1 0x0 MSTORE PUSH1 0x21 PUSH1 0x4 MSTORE PUSH1 0x24 PUSH1 0x0 REVERT JUMPDEST EQ PUSH2 0x45A JUMPI PUSH1 0x0 DUP1 REVERT JUMPDEST PUSH1 0x0 DUP1 SLOAD SWAP1 PUSH2 0x100 EXP SWAP1 DIV PUSH20 0xFFFFFFFFFFFFFFFFFFFFFFFFFFFFFFFFFFFFFFFF AND PUSH20 0xFFFFFFFFFFFFFFFFFFFFFFFFFFFFFFFFFFFFFFFF AND CALLER PUSH20 0xFFFFFFFFFFFFFFFFFFFFFFFFFFFFFFFFFFFFFFFF AND EQ ISZERO DUP1 PUSH2 0x501 JUMPI POP PUSH1 0x1 PUSH1 0x0 DUP4 PUSH20 0xFFFFFFFFFFFFFFFFFFFFFFFFFFFFFFFFFFFFFFFF AND PUSH20 0xFFFFFFFFFFFFFFFFFFFFFFFFFFFFFFFFFFFFFFFF AND DUP2 MSTORE PUSH1 0x20 ADD SWAP1 DUP2 MSTORE PUSH1 0x20 ADD PUSH1 0x0 KECCAK256 PUSH1 0x1 ADD PUSH1 0x0 SWAP1 SLOAD SWAP1 PUSH2 0x100 EXP SWAP1 DIV PUSH1 0xFF AND JUMPDEST ISZERO PUSH2 0x50B JUMPI PUSH2 0x5AE JUMP JUMPDEST PUSH1 0x1 DUP1 PUSH1 0x0 DUP5 PUSH20 0xFFFFFFFFFFFFFFFFFFFFFFFFFFFFFFFFFFFFFFFF AND PUSH20 0xFFFFFFFFFFFFFFFFFFFFFFFFFFFFFFFFFFFFFFFF AND DUP2 MSTORE PUSH1 0x20 ADD SWAP1 DUP2 MSTORE PUSH1 0x20 ADD PUSH1 0x0 KECCAK256 PUSH1 0x0 ADD DUP2 SWAP1 SSTORE POP PUSH1 0x0 PUSH1 0x1 PUSH1 0x0 DUP5 PUSH20 0xFFFFFFFFFFFFFFFFFFFFFFFFFFFFFFFFFFFFFFFF AND PUSH20 0xFFFFFFFFFFFFFFFFFFFFFFFFFFFFFFFFFFFFFFFF AND DUP2 MSTORE PUSH1 0x20 ADD SWAP1 DUP2 MSTORE PUSH1 0x20 ADD PUSH1 0x0 KECCAK256 PUSH1 0x1 ADD PUSH1 0x0 PUSH2 0x100 EXP DUP2 SLOAD DUP2 PUSH1 0xFF MUL NOT AND SWAP1 DUP4 ISZERO ISZERO MUL OR SWAP1 SSTORE POP JUMPDEST POP POP JUMP JUMPDEST PUSH1 0x0 PUSH1 0x3 DUP1 PUSH1 0x3 DUP2 GT ISZERO PUSH2 0x5EF JUMPI PUSH32 0x4E487B7100000000000000000000000000000000000000000000000000000000 PUSH1 0x0 MSTORE PUSH1 0x21 PUSH1 0x4 MSTORE PUSH1 0x24 PUSH1 0x0 REVERT JUMPDEST PUSH1 0x3 PUSH1 0x0 SWAP1 SLOAD SWAP1 PUSH2 0x100 EXP SWAP1 DIV PUSH1 0xFF AND PUSH1 0x3 DUP2 GT ISZERO PUSH2 0x637 JUMPI PUSH32 0x4E487B7100000000000000000000000000000000000000000000000000000000 PUSH1 0x0 MSTORE PUSH1 0x21 PUSH1 0x4 MSTORE PUSH1 0x24 PUSH1 0x0 REVERT JUMPDEST EQ PUSH2 0x641 JUMPI PUSH1 0x0 DUP1 REVERT JUMPDEST PUSH1 0x0 DUP1 JUMPDEST PUSH1 0x2 DUP1 SLOAD SWAP1 POP DUP2 LT ISZERO PUSH2 0x702 JUMPI DUP2 PUSH1 0x2 DUP3 DUP2 SLOAD DUP2 LT PUSH2 0x68D JUMPI PUSH32 0x4E487B7100000000000000000000000000000000000000000000000000000000 PUSH1 0x0 MSTORE PUSH1 0x32 PUSH1 0x4 MSTORE PUSH1 0x24 PUSH1 0x0 REVERT JUMPDEST SWAP1 PUSH1 0x0 MSTORE PUSH1 0x20 PUSH1 0x0 KECCAK256 ADD PUSH1 0x0 ADD SLOAD GT ISZERO PUSH2 0x6EF JUMPI PUSH1 0x2 DUP2 DUP2 SLOAD DUP2 LT PUSH2 0x6DB JUMPI PUSH32 0x4E487B7100000000000000000000000000000000000000000000000000000000 PUSH1 0x0 MSTORE PUSH1 0x32 PUSH1 0x4 MSTORE PUSH1 0x24 PUSH1 0x0 REVERT JUMPDEST SWAP1 PUSH1 0x0 MSTORE PUSH1 0x20 PUSH1 0x0 KECCAK256 ADD PUSH1 0x0 ADD SLOAD SWAP2 POP DUP1 SWAP4 POP JUMPDEST DUP1 DUP1 PUSH2 0x6FA SWAP1 PUSH2 0x8E0 JUMP JUMPDEST SWAP2 POP POP PUSH2 0x645 JUMP JUMPDEST POP POP POP SWAP1 JUMP JUMPDEST PUSH1 0x3 PUSH1 0x0 SWAP1 SLOAD SWAP1 PUSH2 0x100 EXP SWAP1 DIV PUSH1 0xFF AND DUP2 JUMP JUMPDEST PUSH1 0x0 DUP2 CALLDATALOAD SWAP1 POP PUSH2 0x72A DUP2 PUSH2 0x99B JUMP JUMPDEST SWAP3 SWAP2 POP POP JUMP JUMPDEST PUSH1 0x0 DUP2 CALLDATALOAD SWAP1 POP PUSH2 0x73F DUP2 PUSH2 0x9B2 JUMP JUMPDEST SWAP3 SWAP2 POP POP JUMP JUMPDEST PUSH1 0x0 DUP2 CALLDATALOAD SWAP1 POP PUSH2 0x754 DUP2 PUSH2 0x9C2 JUMP JUMPDEST SWAP3 SWAP2 POP POP JUMP JUMPDEST PUSH1 0x0 PUSH1 0x20 DUP3 DUP5 SUB SLT ISZERO PUSH2 0x76C JUMPI PUSH1 0x0 DUP1 REVERT JUMPDEST PUSH1 0x0 PUSH2 0x77A DUP5 DUP3 DUP6 ADD PUSH2 0x71B JUMP JUMPDEST SWAP2 POP POP SWAP3 SWAP2 POP POP JUMP JUMPDEST PUSH1 0x0 PUSH1 0x20 DUP3 DUP5 SUB SLT ISZERO PUSH2 0x795 JUMPI PUSH1 0x0 DUP1 REVERT JUMPDEST PUSH1 0x0 PUSH2 0x7A3 DUP5 DUP3 DUP6 ADD PUSH2 0x730 JUMP JUMPDEST SWAP2 POP POP SWAP3 SWAP2 POP POP JUMP JUMPDEST PUSH1 0x0 PUSH1 0x20 DUP3 DUP5 SUB SLT ISZERO PUSH2 0x7BE JUMPI PUSH1 0x0 DUP1 REVERT JUMPDEST PUSH1 0x0 PUSH2 0x7CC DUP5 DUP3 DUP6 ADD PUSH2 0x745 JUMP JUMPDEST SWAP2 POP POP SWAP3 SWAP2 POP POP JUMP JUMPDEST PUSH2 0x7DE DUP2 PUSH2 0x8CE JUMP JUMPDEST DUP3 MSTORE POP POP JUMP JUMPDEST PUSH2 0x7ED DUP2 PUSH2 0x8C4 JUMP JUMPDEST DUP3 MSTORE POP POP JUMP JUMPDEST PUSH1 0x0 PUSH1 0x20 DUP3 ADD SWAP1 POP PUSH2 0x808 PUSH1 0x0 DUP4 ADD DUP5 PUSH2 0x7D5 JUMP JUMPDEST SWAP3 SWAP2 POP POP JUMP JUMPDEST PUSH1 0x0 PUSH1 0x20 DUP3 ADD SWAP1 POP PUSH2 0x823 PUSH1 0x0 DUP4 ADD DUP5 PUSH2 0x7E4 JUMP JUMPDEST SWAP3 SWAP2 POP POP JUMP JUMPDEST PUSH1 0x0 PUSH2 0x834 DUP3 PUSH2 0x8C4 JUMP JUMPDEST SWAP2 POP PUSH2 0x83F DUP4 PUSH2 0x8C4 JUMP JUMPDEST SWAP3 POP DUP3 PUSH32 0xFFFFFFFFFFFFFFFFFFFFFFFFFFFFFFFFFFFFFFFFFFFFFFFFFFFFFFFFFFFFFFFF SUB DUP3 GT ISZERO PUSH2 0x874 JUMPI PUSH2 0x873 PUSH2 0x929 JUMP JUMPDEST JUMPDEST DUP3 DUP3 ADD SWAP1 POP SWAP3 SWAP2 POP POP JUMP JUMPDEST PUSH1 0x0 PUSH2 0x88A DUP3 PUSH2 0x8A4 JUMP JUMPDEST SWAP1 POP SWAP2 SWAP1 POP JUMP JUMPDEST PUSH1 0x0 DUP2 SWAP1 POP PUSH2 0x89F DUP3 PUSH2 0x987 JUMP JUMPDEST SWAP2 SWAP1 POP JUMP JUMPDEST PUSH1 0x0 PUSH20 0xFFFFFFFFFFFFFFFFFFFFFFFFFFFFFFFFFFFFFFFF DUP3 AND SWAP1 POP SWAP2 SWAP1 POP JUMP JUMPDEST PUSH1 0x0 DUP2 SWAP1 POP SWAP2 SWAP1 POP JUMP JUMPDEST PUSH1 0x0 PUSH2 0x8D9 DUP3 PUSH2 0x891 JUMP JUMPDEST SWAP1 POP SWAP2 SWAP1 POP JUMP JUMPDEST PUSH1 0x0 PUSH2 0x8EB DUP3 PUSH2 0x8C4 JUMP JUMPDEST SWAP2 POP PUSH32 0xFFFFFFFFFFFFFFFFFFFFFFFFFFFFFFFFFFFFFFFFFFFFFFFFFFFFFFFFFFFFFFFF DUP3 EQ ISZERO PUSH2 0x91E JUMPI PUSH2 0x91D PUSH2 0x929 JUMP JUMPDEST JUMPDEST PUSH1 0x1 DUP3 ADD SWAP1 POP SWAP2 SWAP1 POP JUMP JUMPDEST PUSH32 0x4E487B7100000000000000000000000000000000000000000000000000000000 PUSH1 0x0 MSTORE PUSH1 0x11 PUSH1 0x4 MSTORE PUSH1 0x24 PUSH1 0x0 REVERT JUMPDEST PUSH32 0x4E487B7100000000000000000000000000000000000000000000000000000000 PUSH1 0x0 MSTORE PUSH1 0x21 PUSH1 0x4 MSTORE PUSH1 0x24 PUSH1 0x0 REVERT JUMPDEST PUSH1 0x4 DUP2 LT PUSH2 0x998 JUMPI PUSH2 0x997 PUSH2 0x958 JUMP JUMPDEST JUMPDEST POP JUMP JUMPDEST PUSH2 0x9A4 DUP2 PUSH2 0x87F JUMP JUMPDEST DUP2 EQ PUSH2 0x9AF JUMPI PUSH1 0x0 DUP1 REVERT JUMPDEST POP JUMP JUMPDEST PUSH1 0x4 DUP2 LT PUSH2 0x9BF JUMPI PUSH1 0x0 DUP1 REVERT JUMPDEST POP JUMP JUMPDEST PUSH2 0x9CB DUP2 PUSH2 0x8C4 JUMP JUMPDEST DUP2 EQ PUSH2 0x9D6 JUMPI PUSH1 0x0 DUP1 REVERT JUMPDEST POP JUMP INVALID LOG2 PUSH5 0x6970667358 0x22 SLT KECCAK256 0xE9 0xEB 0xBA 0xA8 DIFFICULTY DUP11 SWAP15 DUP5 PUSH28 0x5AC02B540DB3FF0A5EB8A04B3DA4E3F4EC63243FBD6BCE64736F6C63 NUMBER STOP ADDMOD STOP STOP CALLER "
				},
				"gasEstimates": {
					"creation": {
						"codeDepositCost": "515000",
						"executionCost": "infinite",
						"totalCost": "infinite"
					},
					"external": {
						"changeState(uint8)": "23031",
						"register(address)": "44294",
						"reqWinner()": "infinite",
						"state()": "1326",
						"vote(uint256)": "infinite"
					}
				},
				"methodIdentifiers": {
					"changeState(uint8)": "268f1153",
					"register(address)": "4420e486",
					"reqWinner()": "508b30c9",
					"state()": "c19d93fb",
					"vote(uint256)": "0121b93f"
				}
			},
			"storageLayout": {
				"storage": [
					{
						"astId": 13,
						"contract": "BallotV2.sol:BallotV2",
						"label": "chariperson",
						"offset": 0,
						"slot": "0",
						"type": "t_address"
					},
					{
						"astId": 18,
						"contract": "BallotV2.sol:BallotV2",
						"label": "voters",
						"offset": 0,
						"slot": "1",
						"type": "t_mapping(t_address,t_struct(Voter)8_storage)"
					},
					{
						"astId": 22,
						"contract": "BallotV2.sol:BallotV2",
						"label": "proposals",
						"offset": 0,
						"slot": "2",
						"type": "t_array(t_struct(Proposal)11_storage)dyn_storage"
					},
					{
						"astId": 32,
						"contract": "BallotV2.sol:BallotV2",
						"label": "state",
						"offset": 0,
						"slot": "3",
						"type": "t_enum(Phase)27"
					}
				],
				"types": {
					"t_address": {
						"encoding": "inplace",
						"label": "address",
						"numberOfBytes": "20"
					},
					"t_array(t_struct(Proposal)11_storage)dyn_storage": {
						"base": "t_struct(Proposal)11_storage",
						"encoding": "dynamic_array",
						"label": "struct BallotV2.Proposal[]",
						"numberOfBytes": "32"
					},
					"t_bool": {
						"encoding": "inplace",
						"label": "bool",
						"numberOfBytes": "1"
					},
					"t_enum(Phase)27": {
						"encoding": "inplace",
						"label": "enum BallotV2.Phase",
						"numberOfBytes": "1"
					},
					"t_mapping(t_address,t_struct(Voter)8_storage)": {
						"encoding": "mapping",
						"key": "t_address",
						"label": "mapping(address => struct BallotV2.Voter)",
						"numberOfBytes": "32",
						"value": "t_struct(Voter)8_storage"
					},
					"t_struct(Proposal)11_storage": {
						"encoding": "inplace",
						"label": "struct BallotV2.Proposal",
						"members": [
							{
								"astId": 10,
								"contract": "BallotV2.sol:BallotV2",
								"label": "voteCount",
								"offset": 0,
								"slot": "0",
								"type": "t_uint256"
							}
						],
						"numberOfBytes": "32"
					},
					"t_struct(Voter)8_storage": {
						"encoding": "inplace",
						"label": "struct BallotV2.Voter",
						"members": [
							{
								"astId": 3,
								"contract": "BallotV2.sol:BallotV2",
								"label": "weight",
								"offset": 0,
								"slot": "0",
								"type": "t_uint256"
							},
							{
								"astId": 5,
								"contract": "BallotV2.sol:BallotV2",
								"label": "voted",
								"offset": 0,
								"slot": "1",
								"type": "t_bool"
							},
							{
								"astId": 7,
								"contract": "BallotV2.sol:BallotV2",
								"label": "vote",
								"offset": 0,
								"slot": "2",
								"type": "t_uint256"
							}
						],
						"numberOfBytes": "96"
					},
					"t_uint256": {
						"encoding": "inplace",
						"label": "uint256",
						"numberOfBytes": "32"
					}
				}
			},
			"userdoc": {
				"kind": "user",
				"methods": {},
				"version": 1
			}
		}
	}
}