{
	"BallotV2.sol": {
		"BallotV2": {
			"abi": [
				{
					"inputs": [
						{
							"internalType": "uint256",
							"name": "numProposal",
							"type": "uint256"
						}
					],
					"stateMutability": "nonpayable",
					"type": "constructor"
				},
				{
					"inputs": [],
					"name": "state",
					"outputs": [
						{
							"internalType": "enum BallotV2.Phase",
							"name": "",
							"type": "uint8"
						}
					],
					"stateMutability": "view",
					"type": "function"
				}
			],
			"devdoc": {
				"kind": "dev",
				"methods": {},
				"version": 1
			},
			"evm": {
				"assembly": "    /* \"BallotV2.sol\":23:527  contract BallotV2 {... */\n  mstore(0x40, 0x80)\n    /* \"BallotV2.sol\":307:317  Phase.Init */\n  0x00\n    /* \"BallotV2.sol\":286:317  Phase public state = Phase.Init */\n  0x03\n  exp(0x0100, 0x00)\n  dup2\n  sload\n  dup2\n  0xff\n  mul\n  not\n  and\n  swap1\n  dup4\n  0x03\n  dup2\n  gt\n  iszero\n  tag_1\n  jumpi\n  mstore(0x00, 0x4e487b7100000000000000000000000000000000000000000000000000000000)\n  mstore(0x04, 0x21)\n  revert(0x00, 0x24)\ntag_1:\n  mul\n  or\n  swap1\n  sstore\n  pop\n    /* \"BallotV2.sol\":324:525  constructor (uint numProposal) public {... */\n  callvalue\n  dup1\n  iszero\n  tag_2\n  jumpi\n  0x00\n  dup1\n  revert\ntag_2:\n  pop\n  mload(0x40)\n  sub(codesize, bytecodeSize)\n  dup1\n  bytecodeSize\n  dup4\n  codecopy\n  dup2\n  dup2\n  add\n  0x40\n  mstore\n  dup2\n  add\n  swap1\n  tag_3\n  swap2\n  swap1\n  tag_4\n  jump\t// in\ntag_3:\n    /* \"BallotV2.sol\":382:392  msg.sender */\n  caller\n    /* \"BallotV2.sol\":368:379  chariperson */\n  0x00\n  dup1\n    /* \"BallotV2.sol\":368:392  chariperson = msg.sender */\n  0x0100\n  exp\n  dup2\n  sload\n  dup2\n  0xffffffffffffffffffffffffffffffffffffffff\n  mul\n  not\n  and\n  swap1\n  dup4\n  0xffffffffffffffffffffffffffffffffffffffff\n  and\n  mul\n  or\n  swap1\n  sstore\n  pop\n    /* \"BallotV2.sol\":427:428  2 */\n  0x02\n    /* \"BallotV2.sol\":398:404  voters */\n  0x01\n    /* \"BallotV2.sol\":398:417  voters[chariperson] */\n  0x00\n    /* \"BallotV2.sol\":405:416  chariperson */\n  dup1\n  0x00\n  swap1\n  sload\n  swap1\n  0x0100\n  exp\n  swap1\n  div\n  0xffffffffffffffffffffffffffffffffffffffff\n  and\n    /* \"BallotV2.sol\":398:417  voters[chariperson] */\n  0xffffffffffffffffffffffffffffffffffffffff\n  and\n  0xffffffffffffffffffffffffffffffffffffffff\n  and\n  dup2\n  mstore\n  0x20\n  add\n  swap1\n  dup2\n  mstore\n  0x20\n  add\n  0x00\n  keccak256\n    /* \"BallotV2.sol\":398:424  voters[chariperson].weight */\n  0x00\n  add\n    /* \"BallotV2.sol\":398:428  voters[chariperson].weight = 2 */\n  dup2\n  swap1\n  sstore\n  pop\n    /* \"BallotV2.sol\":438:447  uint prop */\n  0x00\n    /* \"BallotV2.sol\":434:521  for(uint prop=0; prop < numProposal; prop++) {... */\ntag_7:\n    /* \"BallotV2.sol\":458:469  numProposal */\n  dup2\n    /* \"BallotV2.sol\":451:455  prop */\n  dup2\n    /* \"BallotV2.sol\":451:469  prop < numProposal */\n  lt\n    /* \"BallotV2.sol\":434:521  for(uint prop=0; prop < numProposal; prop++) {... */\n  iszero\n  tag_8\n  jumpi\n    /* \"BallotV2.sol\":487:496  proposals */\n  0x02\n    /* \"BallotV2.sol\":502:513  Proposal(0) */\n  mload(0x40)\n  dup1\n  0x20\n  add\n  0x40\n  mstore\n  dup1\n    /* \"BallotV2.sol\":511:512  0 */\n  0x00\n    /* \"BallotV2.sol\":502:513  Proposal(0) */\n  dup2\n  mstore\n  pop\n    /* \"BallotV2.sol\":487:514  proposals.push(Proposal(0)) */\n  swap1\n  dup1\n  0x01\n  dup2\n  sload\n  add\n  dup1\n  dup3\n  sstore\n  dup1\n  swap2\n  pop\n  pop\n  0x01\n  swap1\n  sub\n  swap1\n  0x00\n  mstore\n  keccak256(0x00, 0x20)\n  add\n  0x00\n  swap1\n  swap2\n  swap1\n  swap2\n  swap1\n  swap2\n  pop\n  0x00\n  dup3\n  add\n  mload\n  dup2\n  0x00\n  add\n  sstore\n  pop\n  pop\n    /* \"BallotV2.sol\":471:477  prop++ */\n  dup1\n  dup1\n  tag_11\n  swap1\n  tag_12\n  jump\t// in\ntag_11:\n  swap2\n  pop\n  pop\n    /* \"BallotV2.sol\":434:521  for(uint prop=0; prop < numProposal; prop++) {... */\n  jump(tag_7)\ntag_8:\n  pop\n    /* \"BallotV2.sol\":324:525  constructor (uint numProposal) public {... */\n  pop\n    /* \"BallotV2.sol\":23:527  contract BallotV2 {... */\n  jump(tag_13)\n    /* \"#utility.yul\":7:150   */\ntag_15:\n  0x00\n    /* \"#utility.yul\":95:101   */\n  dup2\n    /* \"#utility.yul\":89:102   */\n  mload\n    /* \"#utility.yul\":80:102   */\n  swap1\n  pop\n    /* \"#utility.yul\":111:144   */\n  tag_17\n    /* \"#utility.yul\":138:143   */\n  dup2\n    /* \"#utility.yul\":111:144   */\n  tag_18\n  jump\t// in\ntag_17:\n    /* \"#utility.yul\":70:150   */\n  swap3\n  swap2\n  pop\n  pop\n  jump\t// out\n    /* \"#utility.yul\":156:440   */\ntag_4:\n  0x00\n    /* \"#utility.yul\":275:277   */\n  0x20\n    /* \"#utility.yul\":263:272   */\n  dup3\n    /* \"#utility.yul\":254:261   */\n  dup5\n    /* \"#utility.yul\":250:273   */\n  sub\n    /* \"#utility.yul\":246:278   */\n  slt\n    /* \"#utility.yul\":243:245   */\n  iszero\n  tag_20\n  jumpi\n    /* \"#utility.yul\":291:292   */\n  0x00\n    /* \"#utility.yul\":288:289   */\n  dup1\n    /* \"#utility.yul\":281:293   */\n  revert\n    /* \"#utility.yul\":243:245   */\ntag_20:\n    /* \"#utility.yul\":334:335   */\n  0x00\n    /* \"#utility.yul\":359:423   */\n  tag_21\n    /* \"#utility.yul\":415:422   */\n  dup5\n    /* \"#utility.yul\":406:412   */\n  dup3\n    /* \"#utility.yul\":395:404   */\n  dup6\n    /* \"#utility.yul\":391:413   */\n  add\n    /* \"#utility.yul\":359:423   */\n  tag_15\n  jump\t// in\ntag_21:\n    /* \"#utility.yul\":349:423   */\n  swap2\n  pop\n    /* \"#utility.yul\":305:433   */\n  pop\n    /* \"#utility.yul\":233:440   */\n  swap3\n  swap2\n  pop\n  pop\n  jump\t// out\n    /* \"#utility.yul\":446:523   */\ntag_22:\n  0x00\n    /* \"#utility.yul\":512:517   */\n  dup2\n    /* \"#utility.yul\":501:517   */\n  swap1\n  pop\n    /* \"#utility.yul\":491:523   */\n  swap2\n  swap1\n  pop\n  jump\t// out\n    /* \"#utility.yul\":529:762   */\ntag_12:\n  0x00\n    /* \"#utility.yul\":591:615   */\n  tag_25\n    /* \"#utility.yul\":609:614   */\n  dup3\n    /* \"#utility.yul\":591:615   */\n  tag_22\n  jump\t// in\ntag_25:\n    /* \"#utility.yul\":582:615   */\n  swap2\n  pop\n    /* \"#utility.yul\":637:703   */\n  0xffffffffffffffffffffffffffffffffffffffffffffffffffffffffffffffff\n    /* \"#utility.yul\":630:635   */\n  dup3\n    /* \"#utility.yul\":627:704   */\n  eq\n    /* \"#utility.yul\":624:626   */\n  iszero\n  tag_26\n  jumpi\n    /* \"#utility.yul\":707:725   */\n  tag_27\n  tag_28\n  jump\t// in\ntag_27:\n    /* \"#utility.yul\":624:626   */\ntag_26:\n    /* \"#utility.yul\":754:755   */\n  0x01\n    /* \"#utility.yul\":747:752   */\n  dup3\n    /* \"#utility.yul\":743:756   */\n  add\n    /* \"#utility.yul\":736:756   */\n  swap1\n  pop\n    /* \"#utility.yul\":572:762   */\n  swap2\n  swap1\n  pop\n  jump\t// out\n    /* \"#utility.yul\":768:948   */\ntag_28:\n    /* \"#utility.yul\":816:893   */\n  0x4e487b7100000000000000000000000000000000000000000000000000000000\n    /* \"#utility.yul\":813:814   */\n  0x00\n    /* \"#utility.yul\":806:894   */\n  mstore\n    /* \"#utility.yul\":913:917   */\n  0x11\n    /* \"#utility.yul\":910:911   */\n  0x04\n    /* \"#utility.yul\":903:918   */\n  mstore\n    /* \"#utility.yul\":937:941   */\n  0x24\n    /* \"#utility.yul\":934:935   */\n  0x00\n    /* \"#utility.yul\":927:942   */\n  revert\n    /* \"#utility.yul\":954:1076   */\ntag_18:\n    /* \"#utility.yul\":1027:1051   */\n  tag_31\n    /* \"#utility.yul\":1045:1050   */\n  dup2\n    /* \"#utility.yul\":1027:1051   */\n  tag_22\n  jump\t// in\ntag_31:\n    /* \"#utility.yul\":1020:1025   */\n  dup2\n    /* \"#utility.yul\":1017:1052   */\n  eq\n    /* \"#utility.yul\":1007:1009   */\n  tag_32\n  jumpi\n    /* \"#utility.yul\":1066:1067   */\n  0x00\n    /* \"#utility.yul\":1063:1064   */\n  dup1\n    /* \"#utility.yul\":1056:1068   */\n  revert\n    /* \"#utility.yul\":1007:1009   */\ntag_32:\n    /* \"#utility.yul\":997:1076   */\n  pop\n  jump\t// out\n    /* \"BallotV2.sol\":23:527  contract BallotV2 {... */\ntag_13:\n  dataSize(sub_0)\n  dup1\n  dataOffset(sub_0)\n  0x00\n  codecopy\n  0x00\n  return\nstop\n\nsub_0: assembly {\n        /* \"BallotV2.sol\":23:527  contract BallotV2 {... */\n      mstore(0x40, 0x80)\n      callvalue\n      dup1\n      iszero\n      tag_1\n      jumpi\n      0x00\n      dup1\n      revert\n    tag_1:\n      pop\n      jumpi(tag_2, lt(calldatasize, 0x04))\n      shr(0xe0, calldataload(0x00))\n      dup1\n      0xc19d93fb\n      eq\n      tag_3\n      jumpi\n    tag_2:\n      0x00\n      dup1\n      revert\n        /* \"BallotV2.sol\":286:317  Phase public state = Phase.Init */\n    tag_3:\n      tag_4\n      tag_5\n      jump\t// in\n    tag_4:\n      mload(0x40)\n      tag_6\n      swap2\n      swap1\n      tag_7\n      jump\t// in\n    tag_6:\n      mload(0x40)\n      dup1\n      swap2\n      sub\n      swap1\n      return\n    tag_5:\n      0x03\n      0x00\n      swap1\n      sload\n      swap1\n      0x0100\n      exp\n      swap1\n      div\n      0xff\n      and\n      dup2\n      jump\t// out\n        /* \"#utility.yul\":7:150   */\n    tag_9:\n        /* \"#utility.yul\":100:143   */\n      tag_11\n        /* \"#utility.yul\":137:142   */\n      dup2\n        /* \"#utility.yul\":100:143   */\n      tag_12\n      jump\t// in\n    tag_11:\n        /* \"#utility.yul\":95:98   */\n      dup3\n        /* \"#utility.yul\":88:144   */\n      mstore\n        /* \"#utility.yul\":78:150   */\n      pop\n      pop\n      jump\t// out\n        /* \"#utility.yul\":156:390   */\n    tag_7:\n      0x00\n        /* \"#utility.yul\":293:295   */\n      0x20\n        /* \"#utility.yul\":282:291   */\n      dup3\n        /* \"#utility.yul\":278:296   */\n      add\n        /* \"#utility.yul\":270:296   */\n      swap1\n      pop\n        /* \"#utility.yul\":306:383   */\n      tag_14\n        /* \"#utility.yul\":380:381   */\n      0x00\n        /* \"#utility.yul\":369:378   */\n      dup4\n        /* \"#utility.yul\":365:382   */\n      add\n        /* \"#utility.yul\":356:362   */\n      dup5\n        /* \"#utility.yul\":306:383   */\n      tag_9\n      jump\t// in\n    tag_14:\n        /* \"#utility.yul\":260:390   */\n      swap3\n      swap2\n      pop\n      pop\n      jump\t// out\n        /* \"#utility.yul\":396:523   */\n    tag_15:\n      0x00\n        /* \"#utility.yul\":470:475   */\n      dup2\n        /* \"#utility.yul\":459:475   */\n      swap1\n      pop\n        /* \"#utility.yul\":476:517   */\n      tag_17\n        /* \"#utility.yul\":511:516   */\n      dup3\n        /* \"#utility.yul\":476:517   */\n      tag_18\n      jump\t// in\n    tag_17:\n        /* \"#utility.yul\":449:523   */\n      swap2\n      swap1\n      pop\n      jump\t// out\n        /* \"#utility.yul\":529:656   */\n    tag_12:\n      0x00\n        /* \"#utility.yul\":618:650   */\n      tag_20\n        /* \"#utility.yul\":644:649   */\n      dup3\n        /* \"#utility.yul\":618:650   */\n      tag_15\n      jump\t// in\n    tag_20:\n        /* \"#utility.yul\":605:650   */\n      swap1\n      pop\n        /* \"#utility.yul\":595:656   */\n      swap2\n      swap1\n      pop\n      jump\t// out\n        /* \"#utility.yul\":662:842   */\n    tag_21:\n        /* \"#utility.yul\":710:787   */\n      0x4e487b7100000000000000000000000000000000000000000000000000000000\n        /* \"#utility.yul\":707:708   */\n      0x00\n        /* \"#utility.yul\":700:788   */\n      mstore\n        /* \"#utility.yul\":807:811   */\n      0x21\n        /* \"#utility.yul\":804:805   */\n      0x04\n        /* \"#utility.yul\":797:812   */\n      mstore\n        /* \"#utility.yul\":831:835   */\n      0x24\n        /* \"#utility.yul\":828:829   */\n      0x00\n        /* \"#utility.yul\":821:836   */\n      revert\n        /* \"#utility.yul\":848:961   */\n    tag_18:\n        /* \"#utility.yul\":929:930   */\n      0x04\n        /* \"#utility.yul\":922:927   */\n      dup2\n        /* \"#utility.yul\":919:931   */\n      lt\n        /* \"#utility.yul\":909:911   */\n      tag_24\n      jumpi\n        /* \"#utility.yul\":935:953   */\n      tag_25\n      tag_21\n      jump\t// in\n    tag_25:\n        /* \"#utility.yul\":909:911   */\n    tag_24:\n        /* \"#utility.yul\":899:961   */\n      pop\n      jump\t// out\n\n    auxdata: 0xa2646970667358221220f0f25d78351a3e243da5070243c79104808c5ead2f62d290d96bf99c5803ed9364736f6c63430008000033\n}\n",
				"bytecode": {
					"linkReferences": {},
					"object": "60806040526000600360006101000a81548160ff02191690836003811115610050577f4e487b7100000000000000000000000000000000000000000000000000000000600052602160045260246000fd5b021790555034801561006157600080fd5b50604051610391380380610391833981810160405281019061008391906101a9565b336000806101000a81548173ffffffffffffffffffffffffffffffffffffffff021916908373ffffffffffffffffffffffffffffffffffffffff1602179055506002600160008060009054906101000a900473ffffffffffffffffffffffffffffffffffffffff1673ffffffffffffffffffffffffffffffffffffffff1673ffffffffffffffffffffffffffffffffffffffff1681526020019081526020016000206000018190555060005b8181101561018d57600260405180602001604052806000815250908060018154018082558091505060019003906000526020600020016000909190919091506000820151816000015550508080610185906101dc565b91505061012f565b505061026b565b6000815190506101a381610254565b92915050565b6000602082840312156101bb57600080fd5b60006101c984828501610194565b91505092915050565b6000819050919050565b60006101e7826101d2565b91507fffffffffffffffffffffffffffffffffffffffffffffffffffffffffffffffff82141561021a57610219610225565b5b600182019050919050565b7f4e487b7100000000000000000000000000000000000000000000000000000000600052601160045260246000fd5b61025d816101d2565b811461026857600080fd5b50565b6101178061027a6000396000f3fe6080604052348015600f57600080fd5b506004361060285760003560e01c8063c19d93fb14602d575b600080fd5b60336047565b604051603e91906067565b60405180910390f35b600360009054906101000a900460ff1681565b6061816091565b82525050565b6000602082019050607a6000830184605a565b92915050565b6000819050608c8260d0565b919050565b6000609a826080565b9050919050565b7f4e487b7100000000000000000000000000000000000000000000000000000000600052602160045260246000fd5b6004811060de5760dd60a1565b5b5056fea2646970667358221220f0f25d78351a3e243da5070243c79104808c5ead2f62d290d96bf99c5803ed9364736f6c63430008000033",
					"opcodes": "PUSH1 0x80 PUSH1 0x40 MSTORE PUSH1 0x0 PUSH1 0x3 PUSH1 0x0 PUSH2 0x100 EXP DUP2 SLOAD DUP2 PUSH1 0xFF MUL NOT AND SWAP1 DUP4 PUSH1 0x3 DUP2 GT ISZERO PUSH2 0x50 JUMPI PUSH32 0x4E487B7100000000000000000000000000000000000000000000000000000000 PUSH1 0x0 MSTORE PUSH1 0x21 PUSH1 0x4 MSTORE PUSH1 0x24 PUSH1 0x0 REVERT JUMPDEST MUL OR SWAP1 SSTORE POP CALLVALUE DUP1 ISZERO PUSH2 0x61 JUMPI PUSH1 0x0 DUP1 REVERT JUMPDEST POP PUSH1 0x40 MLOAD PUSH2 0x391 CODESIZE SUB DUP1 PUSH2 0x391 DUP4 CODECOPY DUP2 DUP2 ADD PUSH1 0x40 MSTORE DUP2 ADD SWAP1 PUSH2 0x83 SWAP2 SWAP1 PUSH2 0x1A9 JUMP JUMPDEST CALLER PUSH1 0x0 DUP1 PUSH2 0x100 EXP DUP2 SLOAD DUP2 PUSH20 0xFFFFFFFFFFFFFFFFFFFFFFFFFFFFFFFFFFFFFFFF MUL NOT AND SWAP1 DUP4 PUSH20 0xFFFFFFFFFFFFFFFFFFFFFFFFFFFFFFFFFFFFFFFF AND MUL OR SWAP1 SSTORE POP PUSH1 0x2 PUSH1 0x1 PUSH1 0x0 DUP1 PUSH1 0x0 SWAP1 SLOAD SWAP1 PUSH2 0x100 EXP SWAP1 DIV PUSH20 0xFFFFFFFFFFFFFFFFFFFFFFFFFFFFFFFFFFFFFFFF AND PUSH20 0xFFFFFFFFFFFFFFFFFFFFFFFFFFFFFFFFFFFFFFFF AND PUSH20 0xFFFFFFFFFFFFFFFFFFFFFFFFFFFFFFFFFFFFFFFF AND DUP2 MSTORE PUSH1 0x20 ADD SWAP1 DUP2 MSTORE PUSH1 0x20 ADD PUSH1 0x0 KECCAK256 PUSH1 0x0 ADD DUP2 SWAP1 SSTORE POP PUSH1 0x0 JUMPDEST DUP2 DUP2 LT ISZERO PUSH2 0x18D JUMPI PUSH1 0x2 PUSH1 0x40 MLOAD DUP1 PUSH1 0x20 ADD PUSH1 0x40 MSTORE DUP1 PUSH1 0x0 DUP2 MSTORE POP SWAP1 DUP1 PUSH1 0x1 DUP2 SLOAD ADD DUP1 DUP3 SSTORE DUP1 SWAP2 POP POP PUSH1 0x1 SWAP1 SUB SWAP1 PUSH1 0x0 MSTORE PUSH1 0x20 PUSH1 0x0 KECCAK256 ADD PUSH1 0x0 SWAP1 SWAP2 SWAP1 SWAP2 SWAP1 SWAP2 POP PUSH1 0x0 DUP3 ADD MLOAD DUP2 PUSH1 0x0 ADD SSTORE POP POP DUP1 DUP1 PUSH2 0x185 SWAP1 PUSH2 0x1DC JUMP JUMPDEST SWAP2 POP POP PUSH2 0x12F JUMP JUMPDEST POP POP PUSH2 0x26B JUMP JUMPDEST PUSH1 0x0 DUP2 MLOAD SWAP1 POP PUSH2 0x1A3 DUP2 PUSH2 0x254 JUMP JUMPDEST SWAP3 SWAP2 POP POP JUMP JUMPDEST PUSH1 0x0 PUSH1 0x20 DUP3 DUP5 SUB SLT ISZERO PUSH2 0x1BB JUMPI PUSH1 0x0 DUP1 REVERT JUMPDEST PUSH1 0x0 PUSH2 0x1C9 DUP5 DUP3 DUP6 ADD PUSH2 0x194 JUMP JUMPDEST SWAP2 POP POP SWAP3 SWAP2 POP POP JUMP JUMPDEST PUSH1 0x0 DUP2 SWAP1 POP SWAP2 SWAP1 POP JUMP JUMPDEST PUSH1 0x0 PUSH2 0x1E7 DUP3 PUSH2 0x1D2 JUMP JUMPDEST SWAP2 POP PUSH32 0xFFFFFFFFFFFFFFFFFFFFFFFFFFFFFFFFFFFFFFFFFFFFFFFFFFFFFFFFFFFFFFFF DUP3 EQ ISZERO PUSH2 0x21A JUMPI PUSH2 0x219 PUSH2 0x225 JUMP JUMPDEST JUMPDEST PUSH1 0x1 DUP3 ADD SWAP1 POP SWAP2 SWAP1 POP JUMP JUMPDEST PUSH32 0x4E487B7100000000000000000000000000000000000000000000000000000000 PUSH1 0x0 MSTORE PUSH1 0x11 PUSH1 0x4 MSTORE PUSH1 0x24 PUSH1 0x0 REVERT JUMPDEST PUSH2 0x25D DUP2 PUSH2 0x1D2 JUMP JUMPDEST DUP2 EQ PUSH2 0x268 JUMPI PUSH1 0x0 DUP1 REVERT JUMPDEST POP JUMP JUMPDEST PUSH2 0x117 DUP1 PUSH2 0x27A PUSH1 0x0 CODECOPY PUSH1 0x0 RETURN INVALID PUSH1 0x80 PUSH1 0x40 MSTORE CALLVALUE DUP1 ISZERO PUSH1 0xF JUMPI PUSH1 0x0 DUP1 REVERT JUMPDEST POP PUSH1 0x4 CALLDATASIZE LT PUSH1 0x28 JUMPI PUSH1 0x0 CALLDATALOAD PUSH1 0xE0 SHR DUP1 PUSH4 0xC19D93FB EQ PUSH1 0x2D JUMPI JUMPDEST PUSH1 0x0 DUP1 REVERT JUMPDEST PUSH1 0x33 PUSH1 0x47 JUMP JUMPDEST PUSH1 0x40 MLOAD PUSH1 0x3E SWAP2 SWAP1 PUSH1 0x67 JUMP JUMPDEST PUSH1 0x40 MLOAD DUP1 SWAP2 SUB SWAP1 RETURN JUMPDEST PUSH1 0x3 PUSH1 0x0 SWAP1 SLOAD SWAP1 PUSH2 0x100 EXP SWAP1 DIV PUSH1 0xFF AND DUP2 JUMP JUMPDEST PUSH1 0x61 DUP2 PUSH1 0x91 JUMP JUMPDEST DUP3 MSTORE POP POP JUMP JUMPDEST PUSH1 0x0 PUSH1 0x20 DUP3 ADD SWAP1 POP PUSH1 0x7A PUSH1 0x0 DUP4 ADD DUP5 PUSH1 0x5A JUMP JUMPDEST SWAP3 SWAP2 POP POP JUMP JUMPDEST PUSH1 0x0 DUP2 SWAP1 POP PUSH1 0x8C DUP3 PUSH1 0xD0 JUMP JUMPDEST SWAP2 SWAP1 POP JUMP JUMPDEST PUSH1 0x0 PUSH1 0x9A DUP3 PUSH1 0x80 JUMP JUMPDEST SWAP1 POP SWAP2 SWAP1 POP JUMP JUMPDEST PUSH32 0x4E487B7100000000000000000000000000000000000000000000000000000000 PUSH1 0x0 MSTORE PUSH1 0x21 PUSH1 0x4 MSTORE PUSH1 0x24 PUSH1 0x0 REVERT JUMPDEST PUSH1 0x4 DUP2 LT PUSH1 0xDE JUMPI PUSH1 0xDD PUSH1 0xA1 JUMP JUMPDEST JUMPDEST POP JUMP INVALID LOG2 PUSH5 0x6970667358 0x22 SLT KECCAK256 CREATE CALLCODE 0x5D PUSH25 0x351A3E243DA5070243C79104808C5EAD2F62D290D96BF99C58 SUB 0xED SWAP4 PUSH5 0x736F6C6343 STOP ADDMOD STOP STOP CALLER "
				},
				"gasEstimates": {
					"creation": {
						"codeDepositCost": "55800",
						"executionCost": "infinite",
						"totalCost": "infinite"
					},
					"external": {
						"state()": "1238"
					}
				},
				"methodIdentifiers": {
					"state()": "c19d93fb"
				}
			},
			"storageLayout": {
				"storage": [
					{
						"astId": 13,
						"contract": "BallotV2.sol:BallotV2",
						"label": "chariperson",
						"offset": 0,
						"slot": "0",
						"type": "t_address"
					},
					{
						"astId": 18,
						"contract": "BallotV2.sol:BallotV2",
						"label": "voters",
						"offset": 0,
						"slot": "1",
						"type": "t_mapping(t_address,t_struct(Voter)8_storage)"
					},
					{
						"astId": 22,
						"contract": "BallotV2.sol:BallotV2",
						"label": "proposals",
						"offset": 0,
						"slot": "2",
						"type": "t_array(t_struct(Proposal)11_storage)dyn_storage"
					},
					{
						"astId": 32,
						"contract": "BallotV2.sol:BallotV2",
						"label": "state",
						"offset": 0,
						"slot": "3",
						"type": "t_enum(Phase)27"
					}
				],
				"types": {
					"t_address": {
						"encoding": "inplace",
						"label": "address",
						"numberOfBytes": "20"
					},
					"t_array(t_struct(Proposal)11_storage)dyn_storage": {
						"base": "t_struct(Proposal)11_storage",
						"encoding": "dynamic_array",
						"label": "struct BallotV2.Proposal[]",
						"numberOfBytes": "32"
					},
					"t_bool": {
						"encoding": "inplace",
						"label": "bool",
						"numberOfBytes": "1"
					},
					"t_enum(Phase)27": {
						"encoding": "inplace",
						"label": "enum BallotV2.Phase",
						"numberOfBytes": "1"
					},
					"t_mapping(t_address,t_struct(Voter)8_storage)": {
						"encoding": "mapping",
						"key": "t_address",
						"label": "mapping(address => struct BallotV2.Voter)",
						"numberOfBytes": "32",
						"value": "t_struct(Voter)8_storage"
					},
					"t_struct(Proposal)11_storage": {
						"encoding": "inplace",
						"label": "struct BallotV2.Proposal",
						"members": [
							{
								"astId": 10,
								"contract": "BallotV2.sol:BallotV2",
								"label": "voteCount",
								"offset": 0,
								"slot": "0",
								"type": "t_uint256"
							}
						],
						"numberOfBytes": "32"
					},
					"t_struct(Voter)8_storage": {
						"encoding": "inplace",
						"label": "struct BallotV2.Voter",
						"members": [
							{
								"astId": 3,
								"contract": "BallotV2.sol:BallotV2",
								"label": "weight",
								"offset": 0,
								"slot": "0",
								"type": "t_uint256"
							},
							{
								"astId": 5,
								"contract": "BallotV2.sol:BallotV2",
								"label": "voted",
								"offset": 0,
								"slot": "1",
								"type": "t_bool"
							},
							{
								"astId": 7,
								"contract": "BallotV2.sol:BallotV2",
								"label": "vote",
								"offset": 0,
								"slot": "2",
								"type": "t_uint256"
							}
						],
						"numberOfBytes": "96"
					},
					"t_uint256": {
						"encoding": "inplace",
						"label": "uint256",
						"numberOfBytes": "32"
					}
				}
			},
			"userdoc": {
				"kind": "user",
				"methods": {},
				"version": 1
			}
		}
	}
}